{
  "contractName": "Contract",
  "abi": [
    {
      "constant": true,
      "inputs": [],
      "name": "serviceCount",
      "outputs": [
        {
          "name": "",
          "type": "uint256"
        }
      ],
      "payable": false,
      "stateMutability": "view",
      "type": "function"
    },
    {
      "constant": true,
      "inputs": [
        {
          "name": "",
          "type": "uint256"
        }
      ],
      "name": "services",
      "outputs": [
        {
          "name": "hashS",
          "type": "bytes32"
        },
        {
          "name": "hashS2",
          "type": "bytes32"
        },
        {
          "name": "name",
          "type": "string"
        },
        {
          "name": "serviceID",
          "type": "uint256"
        },
        {
          "name": "serviceProviderAddress",
          "type": "address"
        },
        {
          "name": "s1",
          "type": "string"
        }
      ],
      "payable": false,
      "stateMutability": "view",
      "type": "function"
    },
    {
      "constant": true,
      "inputs": [],
      "name": "clientCount",
      "outputs": [
        {
          "name": "",
          "type": "uint256"
        }
      ],
      "payable": false,
      "stateMutability": "view",
      "type": "function"
    },
    {
      "constant": true,
      "inputs": [],
      "name": "serviceProviderCount",
      "outputs": [
        {
          "name": "",
          "type": "uint256"
        }
      ],
      "payable": false,
      "stateMutability": "view",
      "type": "function"
    },
    {
      "constant": false,
      "inputs": [
        {
          "name": "_name1",
          "type": "string"
        },
        {
          "name": "_name2",
          "type": "string"
        },
        {
          "name": "_hash1",
          "type": "bytes32"
        },
        {
          "name": "_hash2",
          "type": "bytes32"
        }
      ],
      "name": "registerServiceProvider",
      "outputs": [],
      "payable": false,
      "stateMutability": "nonpayable",
      "type": "function"
    },
    {
      "constant": false,
      "inputs": [
        {
          "name": "_name",
          "type": "string"
        }
      ],
      "name": "registerClient",
      "outputs": [],
      "payable": false,
      "stateMutability": "nonpayable",
      "type": "function"
    },
    {
      "constant": true,
      "inputs": [],
      "name": "checkAccount",
      "outputs": [
        {
          "name": "",
          "type": "string"
        }
      ],
      "payable": false,
      "stateMutability": "view",
      "type": "function"
    },
    {
      "constant": false,
      "inputs": [
        {
          "name": "_serviceID",
          "type": "uint256"
        }
      ],
      "name": "requestService",
      "outputs": [],
      "payable": false,
      "stateMutability": "nonpayable",
      "type": "function"
    },
    {
      "constant": true,
      "inputs": [],
      "name": "checkRequestedServiceForClient",
      "outputs": [
        {
          "name": "",
          "type": "uint256"
        }
      ],
      "payable": false,
      "stateMutability": "view",
      "type": "function"
    },
    {
      "constant": true,
      "inputs": [],
      "name": "checkRequestedServiceForProvider",
      "outputs": [
        {
          "name": "",
          "type": "uint256"
        }
      ],
      "payable": false,
      "stateMutability": "view",
      "type": "function"
    },
    {
      "constant": true,
      "inputs": [
        {
          "name": "_requestID",
          "type": "uint256"
        }
      ],
      "name": "getRequestInfo",
      "outputs": [
        {
          "components": [
            {
              "name": "requestID",
              "type": "uint256"
            },
            {
              "name": "state",
              "type": "uint256"
            },
            {
              "name": "from",
              "type": "address"
            },
            {
              "name": "to",
              "type": "address"
            },
            {
              "name": "serviceID",
              "type": "uint256"
            },
            {
              "name": "verdict",
              "type": "string"
            }
          ],
          "name": "",
          "type": "tuple"
        }
      ],
      "payable": false,
      "stateMutability": "view",
      "type": "function"
    },
    {
      "constant": false,
      "inputs": [
        {
          "name": "_requestID",
          "type": "uint256"
        },
        {
          "name": "_hashS2",
          "type": "bytes32"
        }
      ],
      "name": "setHashS2",
      "outputs": [],
      "payable": false,
      "stateMutability": "nonpayable",
      "type": "function"
    },
    {
      "constant": true,
      "inputs": [
        {
          "name": "_serviceID",
          "type": "uint256"
        }
      ],
      "name": "displayHashS2",
      "outputs": [
        {
          "name": "",
          "type": "bytes32"
        }
      ],
      "payable": false,
      "stateMutability": "view",
      "type": "function"
    },
    {
      "constant": false,
      "inputs": [
        {
          "name": "_requestID",
          "type": "uint256"
        }
      ],
      "name": "confirmHashS2",
      "outputs": [],
      "payable": false,
      "stateMutability": "nonpayable",
      "type": "function"
    },
    {
      "constant": false,
      "inputs": [
        {
          "name": "_requestID",
          "type": "uint256"
        }
      ],
      "name": "declineRequest",
      "outputs": [],
      "payable": false,
      "stateMutability": "nonpayable",
      "type": "function"
    },
    {
      "constant": false,
      "inputs": [
        {
          "name": "_requestID",
          "type": "uint256"
        },
        {
          "name": "_s1",
          "type": "string"
        }
      ],
      "name": "publishS1",
      "outputs": [],
      "payable": false,
      "stateMutability": "nonpayable",
      "type": "function"
    },
    {
      "constant": true,
      "inputs": [
        {
          "name": "_requestID",
          "type": "uint256"
        }
      ],
      "name": "displayS1",
      "outputs": [
        {
          "name": "",
          "type": "string"
        }
      ],
      "payable": false,
      "stateMutability": "view",
      "type": "function"
    }
  ],
  "bytecode": "0x608060405234801561001057600080fd5b50612a1b806100206000396000f3fe6080604052600436106100eb576000357c010000000000000000000000000000000000000000000000000000000090048063019fcdea146100f0578063062375261461011957806307a82448146101445780630b816045146101815780630ce2fee1146101be578063399b4ddc146101e95780634c6448fe146102125780635c13a4391461023b578063774ff33e146102665780638386712b146102a35780638c3d63da146102cc578063a4817b78146102f5578063be6ad7671461031e578063c22c4f4314610349578063daffb66d1461038b578063e541c71e146103b4578063efec22db146103df575b600080fd5b3480156100fc57600080fd5b50610117600480360361011291908101906123e9565b61040a565b005b34801561012557600080fd5b5061012e6108e4565b60405161013b9190612912565b60405180910390f35b34801561015057600080fd5b5061016b600480360361016691908101906123e9565b6108ea565b604051610178919061280e565b60405180910390f35b34801561018d57600080fd5b506101a860048036036101a391908101906123e9565b610a11565b6040516101b591906128f0565b60405180910390f35b3480156101ca57600080fd5b506101d3610bfe565b6040516101e09190612912565b60405180910390f35b3480156101f557600080fd5b50610210600480360361020b91908101906123e9565b610d1b565b005b34801561021e57600080fd5b5061023960048036036102349190810190612309565b6110f0565b005b34801561024757600080fd5b5061025061123f565b60405161025d919061280e565b60405180910390f35b34801561027257600080fd5b5061028d600480360361028891908101906123e9565b611427565b60405161029a9190612784565b60405180910390f35b3480156102af57600080fd5b506102ca60048036036102c5919081019061234e565b611499565b005b3480156102d857600080fd5b506102f360048036036102ee91908101906123e9565b61174e565b005b34801561030157600080fd5b5061031c6004803603610317919081019061244e565b611937565b005b34801561032a57600080fd5b50610333611b64565b6040516103409190612912565b60405180910390f35b34801561035557600080fd5b50610370600480360361036b91908101906123e9565b611c81565b6040516103829695949392919061279f565b60405180910390f35b34801561039757600080fd5b506103b260048036036103ad9190810190612412565b611e0d565b005b3480156103c057600080fd5b506103c961202e565b6040516103d69190612912565b60405180910390f35b3480156103eb57600080fd5b506103f4612034565b6040516104019190612912565b60405180910390f35b600073ffffffffffffffffffffffffffffffffffffffff16600660003373ffffffffffffffffffffffffffffffffffffffff1673ffffffffffffffffffffffffffffffffffffffff16815260200190815260200160002060010160009054906101000a900473ffffffffffffffffffffffffffffffffffffffff1673ffffffffffffffffffffffffffffffffffffffff16141515156104de576040517f08c379a00000000000000000000000000000000000000000000000000000000081526004016104d590612870565b60405180910390fd5b6104e661203a565b6005600083815260200190815260200160002060c060405190810160405290816000820154815260200160018201548152602001600282018054600181600116156101000203166002900480601f0160208091040260200160405190810160405280929190818152602001828054600181600116156101000203166002900480156105b25780601f10610587576101008083540402835291602001916105b2565b820191906000526020600020905b81548152906001019060200180831161059557829003601f168201915b50505050508152602001600382015481526020016004820160009054906101000a900473ffffffffffffffffffffffffffffffffffffffff1673ffffffffffffffffffffffffffffffffffffffff1673ffffffffffffffffffffffffffffffffffffffff168152602001600582018054600181600116156101000203166002900480601f0160208091040260200160405190810160405280929190818152602001828054600181600116156101000203166002900480156106b45780601f10610689576101008083540402835291602001916106b4565b820191906000526020600020905b81548152906001019060200180831161069757829003601f168201915b505050505081525050905060008160800151905060036000815480929190600101919050555060c0604051908101604052806003548152602001600081526020013373ffffffffffffffffffffffffffffffffffffffff1681526020018273ffffffffffffffffffffffffffffffffffffffff1681526020018481526020016040805190810160405280600281526020017f4e6f000000000000000000000000000000000000000000000000000000000000815250815250600760006003548152602001908152602001600020600082015181600001556020820151816001015560408201518160020160006101000a81548173ffffffffffffffffffffffffffffffffffffffff021916908373ffffffffffffffffffffffffffffffffffffffff16021790555060608201518160030160006101000a81548173ffffffffffffffffffffffffffffffffffffffff021916908373ffffffffffffffffffffffffffffffffffffffff1602179055506080820151816004015560a082015181600501908051906020019061084992919061208d565b50905050600354600460008373ffffffffffffffffffffffffffffffffffffffff1673ffffffffffffffffffffffffffffffffffffffff16815260200190815260200160002060030181905550600354600660003373ffffffffffffffffffffffffffffffffffffffff1673ffffffffffffffffffffffffffffffffffffffff16815260200190815260200160002060030181905550505050565b60025481565b60606000821180156108fe57506003548211155b151561093f576040517f08c379a0000000000000000000000000000000000000000000000000000000008152600401610936906128d0565b60405180910390fd5b600060076000848152602001908152602001600020600401549050600560008281526020019081526020016000206005018054600181600116156101000203166002900480601f016020809104026020016040519081016040528092919081815260200182805460018160011615610100020316600290048015610a045780601f106109d957610100808354040283529160200191610a04565b820191906000526020600020905b8154815290600101906020018083116109e757829003601f168201915b5050505050915050919050565b610a1961210d565b600082118015610a2b57506003548211155b1515610a6c576040517f08c379a0000000000000000000000000000000000000000000000000000000008152600401610a63906128d0565b60405180910390fd5b6007600083815260200190815260200160002060c0604051908101604052908160008201548152602001600182015481526020016002820160009054906101000a900473ffffffffffffffffffffffffffffffffffffffff1673ffffffffffffffffffffffffffffffffffffffff1673ffffffffffffffffffffffffffffffffffffffff1681526020016003820160009054906101000a900473ffffffffffffffffffffffffffffffffffffffff1673ffffffffffffffffffffffffffffffffffffffff1673ffffffffffffffffffffffffffffffffffffffff16815260200160048201548152602001600582018054600181600116156101000203166002900480601f016020809104026020016040519081016040528092919081815260200182805460018160011615610100020316600290048015610bee5780601f10610bc357610100808354040283529160200191610bee565b820191906000526020600020905b815481529060010190602001808311610bd157829003601f168201915b5050505050815250509050919050565b60008073ffffffffffffffffffffffffffffffffffffffff16600460003373ffffffffffffffffffffffffffffffffffffffff1673ffffffffffffffffffffffffffffffffffffffff16815260200190815260200160002060000160009054906101000a900473ffffffffffffffffffffffffffffffffffffffff1673ffffffffffffffffffffffffffffffffffffffff1614151515610cd3576040517f08c379a0000000000000000000000000000000000000000000000000000000008152600401610cca906128b0565b60405180910390fd5b600460003373ffffffffffffffffffffffffffffffffffffffff1673ffffffffffffffffffffffffffffffffffffffff16815260200190815260200160002060030154905090565b80600081118015610d2e57506003548111155b1515610d6f576040517f08c379a0000000000000000000000000000000000000000000000000000000008152600401610d66906128d0565b60405180910390fd5b60405160200180807f4e6f000000000000000000000000000000000000000000000000000000000000815250600201905060405160208183030381529060405280519060200120600760008381526020019081526020016000206005016040516020018082805460018160011615610100020316600290048015610e2a5780601f10610e08576101008083540402835291820191610e2a565b820191906000526020600020905b815481529060010190602001808311610e16575b505091505060405160208183030381529060405280519060200120141515610e87576040517f08c379a0000000000000000000000000000000000000000000000000000000008152600401610e7e90612890565b60405180910390fd5b600082118015610e9957506003548211155b1515610eda576040517f08c379a0000000000000000000000000000000000000000000000000000000008152600401610ed1906128d0565b60405180910390fd5b600780600084815260200190815260200160002060010181905550600073ffffffffffffffffffffffffffffffffffffffff16600660003373ffffffffffffffffffffffffffffffffffffffff1673ffffffffffffffffffffffffffffffffffffffff16815260200190815260200160002060010160009054906101000a900473ffffffffffffffffffffffffffffffffffffffff1673ffffffffffffffffffffffffffffffffffffffff16141515610ff2576040805190810160405280600d81526020017f41626f72744279436c69656e7400000000000000000000000000000000000000815250600760008481526020019081526020016000206005019080519060200190610fec929190612170565b506110ec565b600073ffffffffffffffffffffffffffffffffffffffff16600460003373ffffffffffffffffffffffffffffffffffffffff1673ffffffffffffffffffffffffffffffffffffffff16815260200190815260200160002060000160009054906101000a900473ffffffffffffffffffffffffffffffffffffffff1673ffffffffffffffffffffffffffffffffffffffff161415156110eb576040805190810160405280601681526020017f41626f727442795365727669636550726f7669646572000000000000000000008152506007600084815260200190815260200160002060050190805190602001906110e9929190612170565b505b5b5050565b60016000815480929190600101919050555060806040519081016040528083838080601f016020809104026020016040519081016040528093929190818152602001838380828437600081840152601f19601f8201169050808301925050505050505081526020013373ffffffffffffffffffffffffffffffffffffffff16815260200160015481526020016000815250600660003373ffffffffffffffffffffffffffffffffffffffff1673ffffffffffffffffffffffffffffffffffffffff16815260200190815260200160002060008201518160000190805190602001906111dc92919061208d565b5060208201518160010160006101000a81548173ffffffffffffffffffffffffffffffffffffffff021916908373ffffffffffffffffffffffffffffffffffffffff16021790555060408201518160020155606082015181600301559050505050565b6060600073ffffffffffffffffffffffffffffffffffffffff16600660003373ffffffffffffffffffffffffffffffffffffffff1673ffffffffffffffffffffffffffffffffffffffff16815260200190815260200160002060010160009054906101000a900473ffffffffffffffffffffffffffffffffffffffff1673ffffffffffffffffffffffffffffffffffffffff16141515611316576040805190810160405280600681526020017f636c69656e7400000000000000000000000000000000000000000000000000008152509050611424565b600073ffffffffffffffffffffffffffffffffffffffff16600460003373ffffffffffffffffffffffffffffffffffffffff1673ffffffffffffffffffffffffffffffffffffffff16815260200190815260200160002060000160009054906101000a900473ffffffffffffffffffffffffffffffffffffffff1673ffffffffffffffffffffffffffffffffffffffff161415156113eb576040805190810160405280600f81526020017f7365727669636550726f766964657200000000000000000000000000000000008152509050611424565b6040805190810160405280600281526020017f6e6f00000000000000000000000000000000000000000000000000000000000081525090505b90565b6000808211801561143a57506002548211155b151561147b576040517f08c379a000000000000000000000000000000000000000000000000000000000815260040161147290612850565b60405180910390fd5b60056000838152602001908152602001600020600101549050919050565b60008081548092919060010191905055506080604051908101604052803373ffffffffffffffffffffffffffffffffffffffff16815260200187878080601f016020809104026020016040519081016040528093929190818152602001838380828437600081840152601f19601f82011690508083019250505050505050815260200160005481526020016000815250600460003373ffffffffffffffffffffffffffffffffffffffff1673ffffffffffffffffffffffffffffffffffffffff16815260200190815260200160002060008201518160000160006101000a81548173ffffffffffffffffffffffffffffffffffffffff021916908373ffffffffffffffffffffffffffffffffffffffff16021790555060208201518160010190805190602001906115cb92919061208d565b50604082015181600201556060820151816003015590505060026000815480929190600101919050555060c06040519081016040528083815260200182815260200185858080601f016020809104026020016040519081016040528093929190818152602001838380828437600081840152601f19601f82011690508083019250505050505050815260200160025481526020013373ffffffffffffffffffffffffffffffffffffffff1681526020016020604051908101604052806000815250815250600560006002548152602001908152602001600020600082015181600001556020820151816001015560408201518160020190805190602001906116d492919061208d565b506060820151816003015560808201518160040160006101000a81548173ffffffffffffffffffffffffffffffffffffffff021916908373ffffffffffffffffffffffffffffffffffffffff16021790555060a082015181600501908051906020019061174292919061208d565b50905050505050505050565b8060008111801561176157506003548111155b15156117a2576040517f08c379a0000000000000000000000000000000000000000000000000000000008152600401611799906128d0565b60405180910390fd5b60405160200180807f4e6f00000000000000000000000000000000000000000000000000000000000081525060020190506040516020818303038152906040528051906020012060076000838152602001908152602001600020600501604051602001808280546001816001161561010002031660029004801561185d5780601f1061183b57610100808354040283529182019161185d565b820191906000526020600020905b815481529060010190602001808311611849575b5050915050604051602081830303815290604052805190602001201415156118ba576040517f08c379a00000000000000000000000000000000000000000000000000000000081526004016118b190612890565b60405180910390fd5b6000821180156118cc57506003548211155b151561190d576040517f08c379a0000000000000000000000000000000000000000000000000000000008152600401611904906128d0565b60405180910390fd5b60076000838152602001908152602001600020600101600081548092919060010191905055505050565b8260008111801561194a57506003548111155b151561198b576040517f08c379a0000000000000000000000000000000000000000000000000000000008152600401611982906128d0565b60405180910390fd5b60405160200180807f4e6f000000000000000000000000000000000000000000000000000000000000815250600201905060405160208183030381529060405280519060200120600760008381526020019081526020016000206005016040516020018082805460018160011615610100020316600290048015611a465780601f10611a24576101008083540402835291820191611a46565b820191906000526020600020905b815481529060010190602001808311611a32575b505091505060405160208183030381529060405280519060200120141515611aa3576040517f08c379a0000000000000000000000000000000000000000000000000000000008152600401611a9a90612890565b60405180910390fd5b600084118015611ab557506003548411155b1515611af6576040517f08c379a0000000000000000000000000000000000000000000000000000000008152600401611aed906128d0565b60405180910390fd5b60006007600086815260200190815260200160002060040154905060076000868152602001908152602001600020600101600081548092919060010191905055508383600560008481526020019081526020016000206005019190611b5c9291906121f0565b505050505050565b60008073ffffffffffffffffffffffffffffffffffffffff16600660003373ffffffffffffffffffffffffffffffffffffffff1673ffffffffffffffffffffffffffffffffffffffff16815260200190815260200160002060010160009054906101000a900473ffffffffffffffffffffffffffffffffffffffff1673ffffffffffffffffffffffffffffffffffffffff1614151515611c39576040517f08c379a0000000000000000000000000000000000000000000000000000000008152600401611c3090612830565b60405180910390fd5b600660003373ffffffffffffffffffffffffffffffffffffffff1673ffffffffffffffffffffffffffffffffffffffff16815260200190815260200160002060030154905090565b6005602052806000526040600020600091509050806000015490806001015490806002018054600181600116156101000203166002900480601f016020809104026020016040519081016040528092919081815260200182805460018160011615610100020316600290048015611d395780601f10611d0e57610100808354040283529160200191611d39565b820191906000526020600020905b815481529060010190602001808311611d1c57829003601f168201915b5050505050908060030154908060040160009054906101000a900473ffffffffffffffffffffffffffffffffffffffff1690806005018054600181600116156101000203166002900480601f016020809104026020016040519081016040528092919081815260200182805460018160011615610100020316600290048015611e035780601f10611dd857610100808354040283529160200191611e03565b820191906000526020600020905b815481529060010190602001808311611de657829003601f168201915b5050505050905086565b81600081118015611e2057506003548111155b1515611e61576040517f08c379a0000000000000000000000000000000000000000000000000000000008152600401611e58906128d0565b60405180910390fd5b60405160200180807f4e6f000000000000000000000000000000000000000000000000000000000000815250600201905060405160208183030381529060405280519060200120600760008381526020019081526020016000206005016040516020018082805460018160011615610100020316600290048015611f1c5780601f10611efa576101008083540402835291820191611f1c565b820191906000526020600020905b815481529060010190602001808311611f08575b505091505060405160208183030381529060405280519060200120141515611f79576040517f08c379a0000000000000000000000000000000000000000000000000000000008152600401611f7090612890565b60405180910390fd5b600083118015611f8b57506003548311155b1515611fcc576040517f08c379a0000000000000000000000000000000000000000000000000000000008152600401611fc3906128d0565b60405180910390fd5b600060076000858152602001908152602001600020600401549050826005600083815260200190815260200160002060010181905550600760008581526020019081526020016000206001016000815480929190600101919050555050505050565b60015481565b60005481565b60c06040519081016040528060008019168152602001600080191681526020016060815260200160008152602001600073ffffffffffffffffffffffffffffffffffffffff168152602001606081525090565b828054600181600116156101000203166002900490600052602060002090601f016020900481019282601f106120ce57805160ff19168380011785556120fc565b828001600101855582156120fc579182015b828111156120fb5782518255916020019190600101906120e0565b5b5090506121099190612270565b5090565b60c0604051908101604052806000815260200160008152602001600073ffffffffffffffffffffffffffffffffffffffff168152602001600073ffffffffffffffffffffffffffffffffffffffff16815260200160008152602001606081525090565b828054600181600116156101000203166002900490600052602060002090601f016020900481019282601f106121b157805160ff19168380011785556121df565b828001600101855582156121df579182015b828111156121de5782518255916020019190600101906121c3565b5b5090506121ec9190612270565b5090565b828054600181600116156101000203166002900490600052602060002090601f016020900481019282601f1061223157803560ff191683800117855561225f565b8280016001018555821561225f579182015b8281111561225e578235825591602001919060010190612243565b5b50905061226c9190612270565b5090565b61229291905b8082111561228e576000816000905550600101612276565b5090565b90565b60006122a18235612989565b905092915050565b60008083601f84011215156122bd57600080fd5b8235905067ffffffffffffffff8111156122d657600080fd5b6020830191508360018202830111156122ee57600080fd5b9250929050565b60006123018235612993565b905092915050565b6000806020838503121561231c57600080fd5b600083013567ffffffffffffffff81111561233657600080fd5b612342858286016122a9565b92509250509250929050565b6000806000806000806080878903121561236757600080fd5b600087013567ffffffffffffffff81111561238157600080fd5b61238d89828a016122a9565b9650965050602087013567ffffffffffffffff8111156123ac57600080fd5b6123b889828a016122a9565b945094505060406123cb89828a01612295565b92505060606123dc89828a01612295565b9150509295509295509295565b6000602082840312156123fb57600080fd5b6000612409848285016122f5565b91505092915050565b6000806040838503121561242557600080fd5b6000612433858286016122f5565b925050602061244485828601612295565b9150509250929050565b60008060006040848603121561246357600080fd5b6000612471868287016122f5565b935050602084013567ffffffffffffffff81111561248e57600080fd5b61249a868287016122a9565b92509250509250925092565b6124af81612943565b82525050565b6124be81612955565b82525050565b60006124cf82612938565b8084526124e381602086016020860161299d565b6124ec816129d0565b602085010191505092915050565b60006125058261292d565b80845261251981602086016020860161299d565b612522816129d0565b602085010191505092915050565b6000602982527f4f6e6c7920636c69656e74732063616e20636865636b2072657175657374656460208301527f20736572766963657300000000000000000000000000000000000000000000006040830152606082019050919050565b6000601282527f496e76616c6964207365727669636520494400000000000000000000000000006020830152604082019050919050565b6000602182527f4f6e6c7920636c69656e74732063616e2072657175657374207365727669636560208301527f73000000000000000000000000000000000000000000000000000000000000006040830152606082019050919050565b6000601482527f56657264696374206d75737420626520274e6f270000000000000000000000006020830152604082019050919050565b6000603382527f4f6e6c7920736572766963652070726f7669646572732063616e20636865636b60208301527f20726571756573746564207365727669636573000000000000000000000000006040830152606082019050919050565b6000601282527f496e76616c6964207265717565737420494400000000000000000000000000006020830152604082019050919050565b600060c0830160008301516127046000860182612775565b5060208301516127176020860182612775565b50604083015161272a60408601826124a6565b50606083015161273d60608601826124a6565b5060808301516127506080860182612775565b5060a083015184820360a086015261276882826124fa565b9150508091505092915050565b61277e8161297f565b82525050565b600060208201905061279960008301846124b5565b92915050565b600060c0820190506127b460008301896124b5565b6127c160208301886124b5565b81810360408301526127d381876124fa565b90506127e26060830186612775565b6127ef60808301856124a6565b81810360a083015261280181846124fa565b9050979650505050505050565b6000602082019050818103600083015261282881846124c4565b905092915050565b6000602082019050818103600083015261284981612530565b9050919050565b600060208201905081810360008301526128698161258d565b9050919050565b60006020820190508181036000830152612889816125c4565b9050919050565b600060208201905081810360008301526128a981612621565b9050919050565b600060208201905081810360008301526128c981612658565b9050919050565b600060208201905081810360008301526128e9816126b5565b9050919050565b6000602082019050818103600083015261290a81846126ec565b905092915050565b60006020820190506129276000830184612775565b92915050565b600081519050919050565b600081519050919050565b600061294e8261295f565b9050919050565b6000819050919050565b600073ffffffffffffffffffffffffffffffffffffffff82169050919050565b6000819050919050565b6000819050919050565b6000819050919050565b60005b838110156129bb5780820151818401526020810190506129a0565b838111156129ca576000848401525b50505050565b6000601f19601f830116905091905056fea265627a7a72305820e0345b0bd7e27c860aa761b5583e028e927aec563cf6c6349107643216fe25fc6c6578706572696d656e74616cf50037",
  "source": "// SPDX-License-Identifier: MIT\r\npragma solidity >=0.4.0 <0.9.0;\r\npragma experimental ABIEncoderV2;\r\n\r\ncontract Contract {\r\n    struct ServiceProvider {\r\n        address serviceProviderAddress;\r\n        string name;\r\n        uint serviceProviderID;\r\n        uint requestID;\r\n    }\r\n\r\n    struct Service {\r\n        bytes32 hashS;\r\n        bytes32 hashS2;\r\n        string name;\r\n        uint serviceID;\r\n        address serviceProviderAddress;\r\n        string s1;\r\n    }\r\n\r\n    struct Client {\r\n        string name;\r\n        address clientAddress;\r\n        uint clientID;\r\n        uint requestID;\r\n    }\r\n\r\n    struct Request {\r\n        uint requestID;\r\n        uint state;\r\n        address from;\r\n        address to;\r\n        uint serviceID;\r\n        string verdict;\r\n    }\r\n\r\n    uint public serviceProviderCount;\r\n    uint public clientCount;\r\n    uint public serviceCount;\r\n    uint private requestCount;\r\n\r\n    mapping(address => ServiceProvider) private serviceProviders;\r\n    mapping(uint => Service) public services;\r\n    mapping(address => Client) private clients;\r\n    mapping(uint => Request) private requests;\r\n\r\n    function registerServiceProvider(string calldata _name1, string calldata _name2, bytes32 _hash1,bytes32 _hash2) external {\r\n        serviceProviderCount++;\r\n        serviceProviders[msg.sender] = ServiceProvider({\r\n            serviceProviderAddress: msg.sender,\r\n            name: _name1,\r\n            serviceProviderID: serviceProviderCount,\r\n            requestID:0\r\n        });\r\n        serviceCount++;\r\n        services[serviceCount] = Service({\r\n            hashS: _hash1,  // Placeholder, replace with the actual hash value\r\n            hashS2: _hash2,  // Placeholder, replace with the actual hash value\r\n            name: _name2,\r\n            serviceID: serviceCount,\r\n            serviceProviderAddress:msg.sender,\r\n            s1:\"\"\r\n        });\r\n\r\n    }\r\n\r\n    function registerClient(string calldata _name) external {\r\n       // require(clients[msg.sender].clientAddress == address(0), \"Client already registered\");\r\n        clientCount++;\r\n        clients[msg.sender] = Client({\r\n            name:_name,\r\n            clientAddress: msg.sender,\r\n            clientID: clientCount,\r\n            requestID:0\r\n        });\r\n        \r\n    }\r\n\r\n    function checkAccount() external view returns (string memory) {\r\n        if (clients[msg.sender].clientAddress != address(0)) {\r\n            return \"client\";\r\n        } else if (serviceProviders[msg.sender].serviceProviderAddress != address(0)) {\r\n            return \"serviceProvider\";\r\n        } else {\r\n            return \"no\";\r\n        }\r\n    }\r\n\r\n    function requestService(uint _serviceID) external {\r\n        require(clients[msg.sender].clientAddress != address(0), \"Only clients can request services\");\r\n        Service memory service = services[_serviceID];\r\n        address serviceProviderAddress = service.serviceProviderAddress;\r\n        // Increment requestCount\r\n        requestCount++;\r\n\r\n        // Create a new Request\r\n        requests[requestCount] = Request({\r\n            requestID: requestCount,\r\n            state: 0,  // You can set the initial state as needed\r\n            from: msg.sender,\r\n            to: serviceProviderAddress,\r\n            serviceID: _serviceID,\r\n            verdict:\"No\"\r\n        });\r\n\r\n        // Update requested service in ServiceProvider\r\n        serviceProviders[serviceProviderAddress].requestID = requestCount;\r\n\r\n        // Update requested service in Client\r\n        clients[msg.sender].requestID = requestCount;\r\n    }\r\n\r\n    function checkRequestedServiceForClient() external view returns (uint) {\r\n        require(clients[msg.sender].clientAddress != address(0), \"Only clients can check requested services\");\r\n        return clients[msg.sender].requestID;\r\n    }\r\n\r\n    function checkRequestedServiceForProvider() external view returns (uint) {\r\n        require(serviceProviders[msg.sender].serviceProviderAddress != address(0), \"Only service providers can check requested services\");\r\n        return serviceProviders[msg.sender].requestID;\r\n    }\r\n\r\n    function getRequestInfo(uint _requestID) external view returns (Request memory) {\r\n        require(_requestID > 0 && _requestID <= requestCount, \"Invalid request ID\");\r\n        return requests[_requestID];\r\n    }\r\n    modifier onlyIfVerdictIsNo(uint _requestID) {\r\n        require(_requestID > 0 && _requestID <= requestCount, \"Invalid request ID\");\r\n        require(keccak256(abi.encodePacked(requests[_requestID].verdict)) == keccak256(abi.encodePacked(\"No\")), \"Verdict must be 'No'\");\r\n        _;\r\n    }\r\n    function setHashS2(uint _requestID, bytes32 _hashS2) external onlyIfVerdictIsNo(_requestID){\r\n        require(_requestID > 0 && _requestID <= requestCount, \"Invalid request ID\");\r\n        // Find the corresponding service ID from the request\r\n        uint serviceID = requests[_requestID].serviceID;\r\n\r\n        // Update HashS2 for the service\r\n        services[serviceID].hashS2 = _hashS2;\r\n\r\n        // Update the state of the request\r\n        requests[_requestID].state++;\r\n    }\r\n\r\n    function displayHashS2(uint _serviceID) external view returns (bytes32) {\r\n        require(_serviceID > 0 && _serviceID <= serviceCount, \"Invalid service ID\");\r\n        return services[_serviceID].hashS2;\r\n    }\r\n\r\n    function confirmHashS2(uint _requestID) external onlyIfVerdictIsNo(_requestID) {\r\n        require(_requestID > 0 && _requestID <= requestCount, \"Invalid request ID\");\r\n\r\n        // Update the state of the request\r\n        requests[_requestID].state++;\r\n    }\r\n     function declineRequest(uint _requestID) external onlyIfVerdictIsNo(_requestID){\r\n        require(_requestID > 0 && _requestID <= requestCount, \"Invalid request ID\");\r\n\r\n        // Update the state of the request to 7\r\n        requests[_requestID].state = 7;\r\n\r\n        // Check if the requester is a client or a service provider\r\n        if (clients[msg.sender].clientAddress != address(0)) {\r\n            // If it is a client, update the verdict to \"AbortByClient\"\r\n            requests[_requestID].verdict = \"AbortByClient\";\r\n        } else if (serviceProviders[msg.sender].serviceProviderAddress != address(0)) {\r\n            // If it is a service provider, update the verdict to \"AbortByServiceProvider\"\r\n            requests[_requestID].verdict = \"AbortByServiceProvider\";\r\n        }\r\n    }\r\n\r\n    function publishS1(uint _requestID, string calldata _s1) external onlyIfVerdictIsNo(_requestID){\r\n        require(_requestID > 0 && _requestID <= requestCount, \"Invalid request ID\");\r\n\r\n        // Find the corresponding service ID from the request\r\n        uint serviceID = requests[_requestID].serviceID;\r\n        requests[_requestID].state++;\r\n        // Update S1 for the service\r\n        services[serviceID].s1 = _s1;\r\n    }\r\n\r\n    function displayS1(uint _requestID) external view returns (string memory) {\r\n        require(_requestID > 0 && _requestID <= requestCount, \"Invalid request ID\");\r\n\r\n        // Find the corresponding service ID from the request\r\n        uint serviceID = requests[_requestID].serviceID;\r\n\r\n        // Return the S1 parameter of the service\r\n        return services[serviceID].s1;\r\n    }\r\n}",
  "sourcePath": "D:\\GOPAL DATA\\iit ropar\\SUBJECTS\\CS-540\\Project\\Project\\contracts\\Contract.sol",
  "compiler": {
    "name": "solc",
    "version": "0.5.1+commit.c8a2cb62.Emscripten.clang"
  },
  "schemaVersion": "3.4.16",
  "updatedAt": "2023-11-15T22:44:23.486Z",
  "networkType": "ethereum",
  "devdoc": {
    "methods": {}
  },
  "userdoc": {
    "methods": {}
  }
}