{
  "contractName": "Contract",
  "abi": [
    {
      "constant": true,
      "inputs": [],
      "name": "serviceCount",
      "outputs": [
        {
          "name": "",
          "type": "uint256"
        }
      ],
      "payable": false,
      "stateMutability": "view",
      "type": "function"
    },
    {
      "constant": true,
      "inputs": [
        {
          "name": "",
          "type": "uint256"
        }
      ],
      "name": "services",
      "outputs": [
        {
          "name": "hashS",
          "type": "string"
        },
        {
          "name": "hashS1",
          "type": "string"
        },
        {
          "name": "name",
          "type": "string"
        },
        {
          "name": "serviceID",
          "type": "uint256"
        },
        {
          "name": "serviceProviderAddress",
          "type": "address"
        },
        {
          "name": "s2",
          "type": "string"
        },
        {
          "name": "tempS",
          "type": "bytes"
        },
        {
          "name": "tempS1",
          "type": "bytes"
        }
      ],
      "payable": false,
      "stateMutability": "view",
      "type": "function"
    },
    {
      "constant": true,
      "inputs": [],
      "name": "clientCount",
      "outputs": [
        {
          "name": "",
          "type": "uint256"
        }
      ],
      "payable": false,
      "stateMutability": "view",
      "type": "function"
    },
    {
      "constant": true,
      "inputs": [],
      "name": "serviceProviderCount",
      "outputs": [
        {
          "name": "",
          "type": "uint256"
        }
      ],
      "payable": false,
      "stateMutability": "view",
      "type": "function"
    },
    {
      "constant": false,
      "inputs": [
        {
          "name": "_name1",
          "type": "string"
        },
        {
          "name": "_name2",
          "type": "string"
        },
        {
          "name": "_hash1",
          "type": "string"
        },
        {
          "name": "_tempS",
          "type": "bytes"
        }
      ],
      "name": "registerServiceProvider",
      "outputs": [],
      "payable": false,
      "stateMutability": "nonpayable",
      "type": "function"
    },
    {
      "constant": false,
      "inputs": [
        {
          "name": "_name",
          "type": "string"
        }
      ],
      "name": "registerClient",
      "outputs": [],
      "payable": false,
      "stateMutability": "nonpayable",
      "type": "function"
    },
    {
      "constant": true,
      "inputs": [],
      "name": "checkAccount",
      "outputs": [
        {
          "name": "",
          "type": "string"
        }
      ],
      "payable": false,
      "stateMutability": "view",
      "type": "function"
    },
    {
      "constant": false,
      "inputs": [
        {
          "name": "_serviceID",
          "type": "uint256"
        }
      ],
      "name": "requestService",
      "outputs": [],
      "payable": false,
      "stateMutability": "nonpayable",
      "type": "function"
    },
    {
      "constant": true,
      "inputs": [],
      "name": "checkRequestedServiceForClient",
      "outputs": [
        {
          "name": "",
          "type": "uint256"
        }
      ],
      "payable": false,
      "stateMutability": "view",
      "type": "function"
    },
    {
      "constant": true,
      "inputs": [],
      "name": "checkRequestedServiceForProvider",
      "outputs": [
        {
          "name": "",
          "type": "uint256"
        }
      ],
      "payable": false,
      "stateMutability": "view",
      "type": "function"
    },
    {
      "constant": true,
      "inputs": [
        {
          "name": "_requestID",
          "type": "uint256"
        }
      ],
      "name": "getRequestInfo",
      "outputs": [
        {
          "components": [
            {
              "name": "requestID",
              "type": "uint256"
            },
            {
              "name": "state",
              "type": "uint256"
            },
            {
              "name": "from",
              "type": "address"
            },
            {
              "name": "to",
              "type": "address"
            },
            {
              "name": "serviceID",
              "type": "uint256"
            },
            {
              "name": "verdict",
              "type": "string"
            }
          ],
          "name": "",
          "type": "tuple"
        }
      ],
      "payable": false,
      "stateMutability": "view",
      "type": "function"
    },
    {
      "constant": false,
      "inputs": [
        {
          "name": "_requestID",
          "type": "uint256"
        },
        {
          "name": "_hashS1",
          "type": "string"
        },
        {
          "name": "_tempS1",
          "type": "bytes"
        }
      ],
      "name": "setHashS1",
      "outputs": [],
      "payable": false,
      "stateMutability": "nonpayable",
      "type": "function"
    },
    {
      "constant": true,
      "inputs": [
        {
          "name": "_serviceID",
          "type": "uint256"
        }
      ],
      "name": "displayHashS1",
      "outputs": [
        {
          "name": "",
          "type": "bytes"
        }
      ],
      "payable": false,
      "stateMutability": "view",
      "type": "function"
    },
    {
      "constant": false,
      "inputs": [
        {
          "name": "_requestID",
          "type": "uint256"
        }
      ],
      "name": "confirmHashS1",
      "outputs": [],
      "payable": false,
      "stateMutability": "nonpayable",
      "type": "function"
    },
    {
      "constant": false,
      "inputs": [
        {
          "name": "_requestID",
          "type": "uint256"
        }
      ],
      "name": "declineRequest",
      "outputs": [],
      "payable": false,
      "stateMutability": "nonpayable",
      "type": "function"
    },
    {
      "constant": false,
      "inputs": [
        {
          "name": "_requestID",
          "type": "uint256"
        },
        {
          "name": "_s2",
          "type": "string"
        }
      ],
      "name": "publishS2",
      "outputs": [],
      "payable": false,
      "stateMutability": "nonpayable",
      "type": "function"
    },
    {
      "constant": true,
      "inputs": [
        {
          "name": "_requestID",
          "type": "uint256"
        }
      ],
      "name": "displayS2",
      "outputs": [
        {
          "name": "",
          "type": "string"
        }
      ],
      "payable": false,
      "stateMutability": "view",
      "type": "function"
    },
    {
      "constant": false,
      "inputs": [
        {
          "name": "_requestID",
          "type": "uint256"
        }
      ],
      "name": "confirmS2",
      "outputs": [],
      "payable": false,
      "stateMutability": "nonpayable",
      "type": "function"
    },
    {
      "constant": false,
      "inputs": [],
      "name": "resetUser",
      "outputs": [],
      "payable": false,
      "stateMutability": "nonpayable",
      "type": "function"
    },
    {
      "constant": false,
      "inputs": [
        {
          "name": "_s",
          "type": "bytes"
        },
        {
          "name": "_requestID",
          "type": "uint256"
        }
      ],
      "name": "computeVerdict",
      "outputs": [
        {
          "name": "",
          "type": "string"
        }
      ],
      "payable": false,
      "stateMutability": "nonpayable",
      "type": "function"
    }
  ],
  "bytecode": "0x608060405234801561001057600080fd5b50613cc8806100206000396000f3fe60806040526004361061010c576000357c010000000000000000000000000000000000000000000000000000000090048063019fcdea14610111578063062375261461013a5780630b816045146101655780630ce2fee1146101a25780631980b22e146101cd578063399b4ddc146101e45780634c6448fe1461020d5780634d1384f4146102365780635c13a4391461025f5780635d6c8a0c1461028a578063868fa0ad146102b35780638cb3c592146102f05780639d4417801461032d578063ac8b416314610356578063b7b43eb31461037f578063be6ad767146103a8578063c22c4f43146103d3578063dc06a74614610417578063e541c71e14610454578063efec22db1461047f575b600080fd5b34801561011d57600080fd5b50610138600480360361013391908101906135aa565b6104aa565b005b34801561014657600080fd5b5061014f610bf9565b60405161015c9190613bbd565b60405180910390f35b34801561017157600080fd5b5061018c600480360361018791908101906135aa565b610bff565b6040516101999190613b9b565b60405180910390f35b3480156101ae57600080fd5b506101b7610dec565b6040516101c49190613bbd565b60405180910390f35b3480156101d957600080fd5b506101e2610f09565b005b3480156101f057600080fd5b5061020b600480360361020691908101906135aa565b6110d2565b005b34801561021957600080fd5b50610234600480360361022f9190810190613490565b6114a8565b005b34801561024257600080fd5b5061025d600480360361025891908101906134d5565b6115f7565b005b34801561026b57600080fd5b506102746119e8565b6040516102819190613a11565b60405180910390f35b34801561029657600080fd5b506102b160048036036102ac91908101906135aa565b611bd0565b005b3480156102bf57600080fd5b506102da60048036036102d59190810190613438565b611db9565b6040516102e79190613a11565b60405180910390f35b3480156102fc57600080fd5b50610317600480360361031291908101906135aa565b61220a565b60405161032491906139ef565b60405180910390f35b34801561033957600080fd5b50610354600480360361034f91908101906135aa565b612315565b005b34801561036257600080fd5b5061037d6004803603610378919081019061362b565b61255e565b005b34801561038b57600080fd5b506103a660048036036103a191908101906135d3565b6127b3565b005b3480156103b457600080fd5b506103bd6129e0565b6040516103ca9190613bbd565b60405180910390f35b3480156103df57600080fd5b506103fa60048036036103f591908101906135aa565b612afd565b60405161040e989796959493929190613a33565b60405180910390f35b34801561042357600080fd5b5061043e600480360361043991908101906135aa565b612ef5565b60405161044b9190613a11565b60405180910390f35b34801561046057600080fd5b5061046961301c565b6040516104769190613bbd565b60405180910390f35b34801561048b57600080fd5b50610494613022565b6040516104a19190613bbd565b60405180910390f35b600073ffffffffffffffffffffffffffffffffffffffff16600660003373ffffffffffffffffffffffffffffffffffffffff1673ffffffffffffffffffffffffffffffffffffffff16815260200190815260200160002060010160009054906101000a900473ffffffffffffffffffffffffffffffffffffffff1673ffffffffffffffffffffffffffffffffffffffff161415151561057e576040517f08c379a000000000000000000000000000000000000000000000000000000000815260040161057590613b1b565b60405180910390fd5b610586613028565b600560008381526020019081526020016000206101006040519081016040529081600082018054600181600116156101000203166002900480601f01602080910402602001604051908101604052809291908181526020018280546001816001161561010002031660029004801561063f5780601f106106145761010080835404028352916020019161063f565b820191906000526020600020905b81548152906001019060200180831161062257829003601f168201915b50505050508152602001600182018054600181600116156101000203166002900480601f0160208091040260200160405190810160405280929190818152602001828054600181600116156101000203166002900480156106e15780601f106106b6576101008083540402835291602001916106e1565b820191906000526020600020905b8154815290600101906020018083116106c457829003601f168201915b50505050508152602001600282018054600181600116156101000203166002900480601f0160208091040260200160405190810160405280929190818152602001828054600181600116156101000203166002900480156107835780601f1061075857610100808354040283529160200191610783565b820191906000526020600020905b81548152906001019060200180831161076657829003601f168201915b50505050508152602001600382015481526020016004820160009054906101000a900473ffffffffffffffffffffffffffffffffffffffff1673ffffffffffffffffffffffffffffffffffffffff1673ffffffffffffffffffffffffffffffffffffffff168152602001600582018054600181600116156101000203166002900480601f0160208091040260200160405190810160405280929190818152602001828054600181600116156101000203166002900480156108855780601f1061085a57610100808354040283529160200191610885565b820191906000526020600020905b81548152906001019060200180831161086857829003601f168201915b50505050508152602001600682018054600181600116156101000203166002900480601f0160208091040260200160405190810160405280929190818152602001828054600181600116156101000203166002900480156109275780601f106108fc57610100808354040283529160200191610927565b820191906000526020600020905b81548152906001019060200180831161090a57829003601f168201915b50505050508152602001600782018054600181600116156101000203166002900480601f0160208091040260200160405190810160405280929190818152602001828054600181600116156101000203166002900480156109c95780601f1061099e576101008083540402835291602001916109c9565b820191906000526020600020905b8154815290600101906020018083116109ac57829003601f168201915b505050505081525050905060008160800151905060036000815480929190600101919050555060c0604051908101604052806003548152602001600081526020013373ffffffffffffffffffffffffffffffffffffffff1681526020018273ffffffffffffffffffffffffffffffffffffffff1681526020018481526020016040805190810160405280600281526020017f4e6f000000000000000000000000000000000000000000000000000000000000815250815250600760006003548152602001908152602001600020600082015181600001556020820151816001015560408201518160020160006101000a81548173ffffffffffffffffffffffffffffffffffffffff021916908373ffffffffffffffffffffffffffffffffffffffff16021790555060608201518160030160006101000a81548173ffffffffffffffffffffffffffffffffffffffff021916908373ffffffffffffffffffffffffffffffffffffffff1602179055506080820151816004015560a0820151816005019080519060200190610b5e929190613084565b50905050600354600460008373ffffffffffffffffffffffffffffffffffffffff1673ffffffffffffffffffffffffffffffffffffffff16815260200190815260200160002060030181905550600354600660003373ffffffffffffffffffffffffffffffffffffffff1673ffffffffffffffffffffffffffffffffffffffff16815260200190815260200160002060030181905550505050565b60025481565b610c07613104565b600082118015610c1957506003548211155b1515610c5a576040517f08c379a0000000000000000000000000000000000000000000000000000000008152600401610c5190613b7b565b60405180910390fd5b6007600083815260200190815260200160002060c0604051908101604052908160008201548152602001600182015481526020016002820160009054906101000a900473ffffffffffffffffffffffffffffffffffffffff1673ffffffffffffffffffffffffffffffffffffffff1673ffffffffffffffffffffffffffffffffffffffff1681526020016003820160009054906101000a900473ffffffffffffffffffffffffffffffffffffffff1673ffffffffffffffffffffffffffffffffffffffff1673ffffffffffffffffffffffffffffffffffffffff16815260200160048201548152602001600582018054600181600116156101000203166002900480601f016020809104026020016040519081016040528092919081815260200182805460018160011615610100020316600290048015610ddc5780601f10610db157610100808354040283529160200191610ddc565b820191906000526020600020905b815481529060010190602001808311610dbf57829003601f168201915b5050505050815250509050919050565b60008073ffffffffffffffffffffffffffffffffffffffff16600460003373ffffffffffffffffffffffffffffffffffffffff1673ffffffffffffffffffffffffffffffffffffffff16815260200190815260200160002060000160009054906101000a900473ffffffffffffffffffffffffffffffffffffffff1673ffffffffffffffffffffffffffffffffffffffff1614151515610ec1576040517f08c379a0000000000000000000000000000000000000000000000000000000008152600401610eb890613b5b565b60405180910390fd5b600460003373ffffffffffffffffffffffffffffffffffffffff1673ffffffffffffffffffffffffffffffffffffffff16815260200190815260200160002060030154905090565b600073ffffffffffffffffffffffffffffffffffffffff16600660003373ffffffffffffffffffffffffffffffffffffffff1673ffffffffffffffffffffffffffffffffffffffff16815260200190815260200160002060010160009054906101000a900473ffffffffffffffffffffffffffffffffffffffff1673ffffffffffffffffffffffffffffffffffffffff16141515610fee576000600660003373ffffffffffffffffffffffffffffffffffffffff1673ffffffffffffffffffffffffffffffffffffffff168152602001908152602001600020600301819055506110d0565b600073ffffffffffffffffffffffffffffffffffffffff16600460003373ffffffffffffffffffffffffffffffffffffffff1673ffffffffffffffffffffffffffffffffffffffff16815260200190815260200160002060000160009054906101000a900473ffffffffffffffffffffffffffffffffffffffff1673ffffffffffffffffffffffffffffffffffffffff161415156110cf576000600460003373ffffffffffffffffffffffffffffffffffffffff1673ffffffffffffffffffffffffffffffffffffffff168152602001908152602001600020600301819055505b5b565b806000811180156110e557506003548111155b1515611126576040517f08c379a000000000000000000000000000000000000000000000000000000000815260040161111d90613b7b565b60405180910390fd5b60405160200180807f4e6f0000000000000000000000000000000000000000000000000000000000008152506002019050604051602081830303815290604052805190602001206007600083815260200190815260200160002060050160405160200180828054600181600116156101000203166002900480156111e15780601f106111bf5761010080835404028352918201916111e1565b820191906000526020600020905b8154815290600101906020018083116111cd575b50509150506040516020818303038152906040528051906020012014151561123e576040517f08c379a000000000000000000000000000000000000000000000000000000000815260040161123590613b3b565b60405180910390fd5b60008211801561125057506003548211155b1515611291576040517f08c379a000000000000000000000000000000000000000000000000000000000815260040161128890613b7b565b60405180910390fd5b60046007600084815260200190815260200160002060010181905550600073ffffffffffffffffffffffffffffffffffffffff16600660003373ffffffffffffffffffffffffffffffffffffffff1673ffffffffffffffffffffffffffffffffffffffff16815260200190815260200160002060010160009054906101000a900473ffffffffffffffffffffffffffffffffffffffff1673ffffffffffffffffffffffffffffffffffffffff161415156113aa576040805190810160405280600d81526020017f41626f72744279436c69656e74000000000000000000000000000000000000008152506007600084815260200190815260200160002060050190805190602001906113a4929190613167565b506114a4565b600073ffffffffffffffffffffffffffffffffffffffff16600460003373ffffffffffffffffffffffffffffffffffffffff1673ffffffffffffffffffffffffffffffffffffffff16815260200190815260200160002060000160009054906101000a900473ffffffffffffffffffffffffffffffffffffffff1673ffffffffffffffffffffffffffffffffffffffff161415156114a3576040805190810160405280601681526020017f41626f727442795365727669636550726f7669646572000000000000000000008152506007600084815260200190815260200160002060050190805190602001906114a1929190613167565b505b5b5050565b60016000815480929190600101919050555060806040519081016040528083838080601f016020809104026020016040519081016040528093929190818152602001838380828437600081840152601f19601f8201169050808301925050505050505081526020013373ffffffffffffffffffffffffffffffffffffffff16815260200160015481526020016000815250600660003373ffffffffffffffffffffffffffffffffffffffff1673ffffffffffffffffffffffffffffffffffffffff1681526020019081526020016000206000820151816000019080519060200190611594929190613084565b5060208201518160010160006101000a81548173ffffffffffffffffffffffffffffffffffffffff021916908373ffffffffffffffffffffffffffffffffffffffff16021790555060408201518160020155606082015181600301559050505050565b60008081548092919060010191905055506080604051908101604052803373ffffffffffffffffffffffffffffffffffffffff16815260200189898080601f016020809104026020016040519081016040528093929190818152602001838380828437600081840152601f19601f82011690508083019250505050505050815260200160005481526020016000815250600460003373ffffffffffffffffffffffffffffffffffffffff1673ffffffffffffffffffffffffffffffffffffffff16815260200190815260200160002060008201518160000160006101000a81548173ffffffffffffffffffffffffffffffffffffffff021916908373ffffffffffffffffffffffffffffffffffffffff1602179055506020820151816001019080519060200190611729929190613084565b5060408201518160020155606082015181600301559050506002600081548092919060010191905055506101006040519081016040528085858080601f016020809104026020016040519081016040528093929190818152602001838380828437600081840152601f19601f8201169050808301925050505050505081526020016020604051908101604052806000815250815260200187878080601f016020809104026020016040519081016040528093929190818152602001838380828437600081840152601f19601f82011690508083019250505050505050815260200160025481526020013373ffffffffffffffffffffffffffffffffffffffff1681526020016020604051908101604052806000815250815260200183838080601f016020809104026020016040519081016040528093929190818152602001838380828437600081840152601f19601f8201169050808301925050505050505081526020016040805190810160405280600381526020017f313233000000000000000000000000000000000000000000000000000000000081525081525060056000600254815260200190815260200160002060008201518160000190805190602001906118f8929190613084565b506020820151816001019080519060200190611915929190613084565b506040820151816002019080519060200190611932929190613084565b506060820151816003015560808201518160040160006101000a81548173ffffffffffffffffffffffffffffffffffffffff021916908373ffffffffffffffffffffffffffffffffffffffff16021790555060a08201518160050190805190602001906119a0929190613084565b5060c08201518160060190805190602001906119bd9291906131e7565b5060e08201518160070190805190602001906119da9291906131e7565b509050505050505050505050565b6060600073ffffffffffffffffffffffffffffffffffffffff16600660003373ffffffffffffffffffffffffffffffffffffffff1673ffffffffffffffffffffffffffffffffffffffff16815260200190815260200160002060010160009054906101000a900473ffffffffffffffffffffffffffffffffffffffff1673ffffffffffffffffffffffffffffffffffffffff16141515611abf576040805190810160405280600681526020017f636c69656e7400000000000000000000000000000000000000000000000000008152509050611bcd565b600073ffffffffffffffffffffffffffffffffffffffff16600460003373ffffffffffffffffffffffffffffffffffffffff1673ffffffffffffffffffffffffffffffffffffffff16815260200190815260200160002060000160009054906101000a900473ffffffffffffffffffffffffffffffffffffffff1673ffffffffffffffffffffffffffffffffffffffff16141515611b94576040805190810160405280600f81526020017f7365727669636550726f766964657200000000000000000000000000000000008152509050611bcd565b6040805190810160405280600281526020017f6e6f00000000000000000000000000000000000000000000000000000000000081525090505b90565b80600081118015611be357506003548111155b1515611c24576040517f08c379a0000000000000000000000000000000000000000000000000000000008152600401611c1b90613b7b565b60405180910390fd5b60405160200180807f4e6f000000000000000000000000000000000000000000000000000000000000815250600201905060405160208183030381529060405280519060200120600760008381526020019081526020016000206005016040516020018082805460018160011615610100020316600290048015611cdf5780601f10611cbd576101008083540402835291820191611cdf565b820191906000526020600020905b815481529060010190602001808311611ccb575b505091505060405160208183030381529060405280519060200120141515611d3c576040517f08c379a0000000000000000000000000000000000000000000000000000000008152600401611d3390613b3b565b60405180910390fd5b600082118015611d4e57506003548211155b1515611d8f576040517f08c379a0000000000000000000000000000000000000000000000000000000008152600401611d8690613b7b565b60405180910390fd5b60076000838152602001908152602001600020600101600081548092919060010191905055505050565b6060600082118015611dcd57506003548211155b1515611e0e576040517f08c379a0000000000000000000000000000000000000000000000000000000008152600401611e0590613b7b565b60405180910390fd5b60006007600084815260200190815260200160002060040154905060076000848152602001908152602001600020600101600081548092919060010191905055506060600560008381526020019081526020016000206006018054600181600116156101000203166002900480601f016020809104026020016040519081016040528092919081815260200182805460018160011615610100020316600290048015611efb5780601f10611ed057610100808354040283529160200191611efb565b820191906000526020600020905b815481529060010190602001808311611ede57829003601f168201915b50505050509050805186869050141515611fae576040805190810160405280600f81526020017f4d616c6963696f7573436c69656e740000000000000000000000000000000000815250600760008681526020019081526020016000206005019080519060200190611f6e929190613167565b506040805190810160405280600381526020017f596573000000000000000000000000000000000000000000000000000000000081525092505050612203565b60008090505b86869050811015612167578181815181101515611fcd57fe5b9060200101517f010000000000000000000000000000000000000000000000000000000000000090047f0100000000000000000000000000000000000000000000000000000000000000027effffffffffffffffffffffffffffffffffffffffffffffffffffffffffffff1916878783818110151561204857fe5b905001357f010000000000000000000000000000000000000000000000000000000000000090047f0100000000000000000000000000000000000000000000000000000000000000027effffffffffffffffffffffffffffffffffffffffffffffffffffffffffffff191614151561215a576040805190810160405280601881526020017f4d616c6963696f75735365727669636550726f76696465720000000000000000815250600760008781526020019081526020016000206005019080519060200190612119929190613167565b506040805190810160405280600281526020017f4e6f0000000000000000000000000000000000000000000000000000000000008152509350505050612203565b8080600101915050611fb4565b506040805190810160405280600f81526020017f4d616c6963696f7573436c69656e7400000000000000000000000000000000008152506007600086815260200190815260200160002060050190805190602001906121c7929190613167565b506040805190810160405280600381526020017f5965730000000000000000000000000000000000000000000000000000000000815250925050505b9392505050565b606060008211801561221e57506002548211155b151561225f576040517f08c379a000000000000000000000000000000000000000000000000000000000815260040161225690613afb565b60405180910390fd5b600560008381526020019081526020016000206007018054600181600116156101000203166002900480601f0160208091040260200160405190810160405280929190818152602001828054600181600116156101000203166002900480156123095780601f106122de57610100808354040283529160200191612309565b820191906000526020600020905b8154815290600101906020018083116122ec57829003601f168201915b50505050509050919050565b8060008111801561232857506003548111155b1515612369576040517f08c379a000000000000000000000000000000000000000000000000000000000815260040161236090613b7b565b60405180910390fd5b60405160200180807f4e6f0000000000000000000000000000000000000000000000000000000000008152506002019050604051602081830303815290604052805190602001206007600083815260200190815260200160002060050160405160200180828054600181600116156101000203166002900480156124245780601f10612402576101008083540402835291820191612424565b820191906000526020600020905b815481529060010190602001808311612410575b505091505060405160208183030381529060405280519060200120141515612481576040517f08c379a000000000000000000000000000000000000000000000000000000000815260040161247890613b3b565b60405180910390fd5b60008211801561249357506003548211155b15156124d4576040517f08c379a00000000000000000000000000000000000000000000000000000000081526004016124cb90613b7b565b60405180910390fd5b60076000838152602001908152602001600020600101600081548092919060010191905055506040805190810160405280600781526020017f5375636365737300000000000000000000000000000000000000000000000000815250600760008481526020019081526020016000206005019080519060200190612559929190613167565b505050565b8460008111801561257157506003548111155b15156125b2576040517f08c379a00000000000000000000000000000000000000000000000000000000081526004016125a990613b7b565b60405180910390fd5b60405160200180807f4e6f00000000000000000000000000000000000000000000000000000000000081525060020190506040516020818303038152906040528051906020012060076000838152602001908152602001600020600501604051602001808280546001816001161561010002031660029004801561266d5780601f1061264b57610100808354040283529182019161266d565b820191906000526020600020905b815481529060010190602001808311612659575b5050915050604051602081830303815290604052805190602001201415156126ca576040517f08c379a00000000000000000000000000000000000000000000000000000000081526004016126c190613b3b565b60405180910390fd5b6000861180156126dc57506003548611155b151561271d576040517f08c379a000000000000000000000000000000000000000000000000000000000815260040161271490613b7b565b60405180910390fd5b600060076000888152602001908152602001600020600401549050858560056000848152602001908152602001600020600101919061275d929190613267565b5083836005600084815260200190815260200160002060070191906127839291906132e7565b50600760008881526020019081526020016000206001016000815480929190600101919050555050505050505050565b826000811180156127c657506003548111155b1515612807576040517f08c379a00000000000000000000000000000000000000000000000000000000081526004016127fe90613b7b565b60405180910390fd5b60405160200180807f4e6f0000000000000000000000000000000000000000000000000000000000008152506002019050604051602081830303815290604052805190602001206007600083815260200190815260200160002060050160405160200180828054600181600116156101000203166002900480156128c25780601f106128a05761010080835404028352918201916128c2565b820191906000526020600020905b8154815290600101906020018083116128ae575b50509150506040516020818303038152906040528051906020012014151561291f576040517f08c379a000000000000000000000000000000000000000000000000000000000815260040161291690613b3b565b60405180910390fd5b60008411801561293157506003548411155b1515612972576040517f08c379a000000000000000000000000000000000000000000000000000000000815260040161296990613b7b565b60405180910390fd5b600060076000868152602001908152602001600020600401549050600760008681526020019081526020016000206001016000815480929190600101919050555083836005600084815260200190815260200160002060050191906129d8929190613267565b505050505050565b60008073ffffffffffffffffffffffffffffffffffffffff16600660003373ffffffffffffffffffffffffffffffffffffffff1673ffffffffffffffffffffffffffffffffffffffff16815260200190815260200160002060010160009054906101000a900473ffffffffffffffffffffffffffffffffffffffff1673ffffffffffffffffffffffffffffffffffffffff1614151515612ab5576040517f08c379a0000000000000000000000000000000000000000000000000000000008152600401612aac90613adb565b60405180910390fd5b600660003373ffffffffffffffffffffffffffffffffffffffff1673ffffffffffffffffffffffffffffffffffffffff16815260200190815260200160002060030154905090565b6005602052806000526040600020600091509050806000018054600181600116156101000203166002900480601f016020809104026020016040519081016040528092919081815260200182805460018160011615610100020316600290048015612ba95780601f10612b7e57610100808354040283529160200191612ba9565b820191906000526020600020905b815481529060010190602001808311612b8c57829003601f168201915b505050505090806001018054600181600116156101000203166002900480601f016020809104026020016040519081016040528092919081815260200182805460018160011615610100020316600290048015612c475780601f10612c1c57610100808354040283529160200191612c47565b820191906000526020600020905b815481529060010190602001808311612c2a57829003601f168201915b505050505090806002018054600181600116156101000203166002900480601f016020809104026020016040519081016040528092919081815260200182805460018160011615610100020316600290048015612ce55780601f10612cba57610100808354040283529160200191612ce5565b820191906000526020600020905b815481529060010190602001808311612cc857829003601f168201915b5050505050908060030154908060040160009054906101000a900473ffffffffffffffffffffffffffffffffffffffff1690806005018054600181600116156101000203166002900480601f016020809104026020016040519081016040528092919081815260200182805460018160011615610100020316600290048015612daf5780601f10612d8457610100808354040283529160200191612daf565b820191906000526020600020905b815481529060010190602001808311612d9257829003601f168201915b505050505090806006018054600181600116156101000203166002900480601f016020809104026020016040519081016040528092919081815260200182805460018160011615610100020316600290048015612e4d5780601f10612e2257610100808354040283529160200191612e4d565b820191906000526020600020905b815481529060010190602001808311612e3057829003601f168201915b505050505090806007018054600181600116156101000203166002900480601f016020809104026020016040519081016040528092919081815260200182805460018160011615610100020316600290048015612eeb5780601f10612ec057610100808354040283529160200191612eeb565b820191906000526020600020905b815481529060010190602001808311612ece57829003601f168201915b5050505050905088565b6060600082118015612f0957506003548211155b1515612f4a576040517f08c379a0000000000000000000000000000000000000000000000000000000008152600401612f4190613b7b565b60405180910390fd5b600060076000848152602001908152602001600020600401549050600560008281526020019081526020016000206005018054600181600116156101000203166002900480601f01602080910402602001604051908101604052809291908181526020018280546001816001161561010002031660029004801561300f5780601f10612fe45761010080835404028352916020019161300f565b820191906000526020600020905b815481529060010190602001808311612ff257829003601f168201915b5050505050915050919050565b60015481565b60005481565b6101006040519081016040528060608152602001606081526020016060815260200160008152602001600073ffffffffffffffffffffffffffffffffffffffff1681526020016060815260200160608152602001606081525090565b828054600181600116156101000203166002900490600052602060002090601f016020900481019282601f106130c557805160ff19168380011785556130f3565b828001600101855582156130f3579182015b828111156130f25782518255916020019190600101906130d7565b5b5090506131009190613367565b5090565b60c0604051908101604052806000815260200160008152602001600073ffffffffffffffffffffffffffffffffffffffff168152602001600073ffffffffffffffffffffffffffffffffffffffff16815260200160008152602001606081525090565b828054600181600116156101000203166002900490600052602060002090601f016020900481019282601f106131a857805160ff19168380011785556131d6565b828001600101855582156131d6579182015b828111156131d55782518255916020019190600101906131ba565b5b5090506131e39190613367565b5090565b828054600181600116156101000203166002900490600052602060002090601f016020900481019282601f1061322857805160ff1916838001178555613256565b82800160010185558215613256579182015b8281111561325557825182559160200191906001019061323a565b5b5090506132639190613367565b5090565b828054600181600116156101000203166002900490600052602060002090601f016020900481019282601f106132a857803560ff19168380011785556132d6565b828001600101855582156132d6579182015b828111156132d55782358255916020019190600101906132ba565b5b5090506132e39190613367565b5090565b828054600181600116156101000203166002900490600052602060002090601f016020900481019282601f1061332857803560ff1916838001178555613356565b82800160010185558215613356579182015b8281111561335557823582559160200191906001019061333a565b5b5090506133639190613367565b5090565b61338991905b8082111561338557600081600090555060010161336d565b5090565b90565b60008083601f84011215156133a057600080fd5b8235905067ffffffffffffffff8111156133b957600080fd5b6020830191508360018202830111156133d157600080fd5b9250929050565b60008083601f84011215156133ec57600080fd5b8235905067ffffffffffffffff81111561340557600080fd5b60208301915083600182028301111561341d57600080fd5b9250929050565b60006134308235613c40565b905092915050565b60008060006040848603121561344d57600080fd5b600084013567ffffffffffffffff81111561346757600080fd5b6134738682870161338c565b9350935050602061348686828701613424565b9150509250925092565b600080602083850312156134a357600080fd5b600083013567ffffffffffffffff8111156134bd57600080fd5b6134c9858286016133d8565b92509250509250929050565b6000806000806000806000806080898b0312156134f157600080fd5b600089013567ffffffffffffffff81111561350b57600080fd5b6135178b828c016133d8565b9850985050602089013567ffffffffffffffff81111561353657600080fd5b6135428b828c016133d8565b9650965050604089013567ffffffffffffffff81111561356157600080fd5b61356d8b828c016133d8565b9450945050606089013567ffffffffffffffff81111561358c57600080fd5b6135988b828c0161338c565b92509250509295985092959890939650565b6000602082840312156135bc57600080fd5b60006135ca84828501613424565b91505092915050565b6000806000604084860312156135e857600080fd5b60006135f686828701613424565b935050602084013567ffffffffffffffff81111561361357600080fd5b61361f868287016133d8565b92509250509250925092565b60008060008060006060868803121561364357600080fd5b600061365188828901613424565b955050602086013567ffffffffffffffff81111561366e57600080fd5b61367a888289016133d8565b9450945050604086013567ffffffffffffffff81111561369957600080fd5b6136a58882890161338c565b92509250509295509295909350565b6136bd81613c04565b82525050565b60006136ce82613be3565b8084526136e2816020860160208601613c4a565b6136eb81613c7d565b602085010191505092915050565b600061370482613bd8565b808452613718816020860160208601613c4a565b61372181613c7d565b602085010191505092915050565b600061373a82613bf9565b80845261374e816020860160208601613c4a565b61375781613c7d565b602085010191505092915050565b600061377082613bee565b808452613784816020860160208601613c4a565b61378d81613c7d565b602085010191505092915050565b6000602982527f4f6e6c7920636c69656e74732063616e20636865636b2072657175657374656460208301527f20736572766963657300000000000000000000000000000000000000000000006040830152606082019050919050565b6000601282527f496e76616c6964207365727669636520494400000000000000000000000000006020830152604082019050919050565b6000602182527f4f6e6c7920636c69656e74732063616e2072657175657374207365727669636560208301527f73000000000000000000000000000000000000000000000000000000000000006040830152606082019050919050565b6000601482527f56657264696374206d75737420626520274e6f270000000000000000000000006020830152604082019050919050565b6000603382527f4f6e6c7920736572766963652070726f7669646572732063616e20636865636b60208301527f20726571756573746564207365727669636573000000000000000000000000006040830152606082019050919050565b6000601282527f496e76616c6964207265717565737420494400000000000000000000000000006020830152604082019050919050565b600060c08301600083015161396f60008601826139e0565b50602083015161398260208601826139e0565b50604083015161399560408601826136b4565b5060608301516139a860608601826136b4565b5060808301516139bb60808601826139e0565b5060a083015184820360a08601526139d38282613765565b9150508091505092915050565b6139e981613c36565b82525050565b60006020820190508181036000830152613a0981846136c3565b905092915050565b60006020820190508181036000830152613a2b818461372f565b905092915050565b6000610100820190508181036000830152613a4e818b613765565b90508181036020830152613a62818a613765565b90508181036040830152613a768189613765565b9050613a8560608301886139e0565b613a9260808301876136b4565b81810360a0830152613aa48186613765565b905081810360c0830152613ab881856136f9565b905081810360e0830152613acc81846136f9565b90509998505050505050505050565b60006020820190508181036000830152613af48161379b565b9050919050565b60006020820190508181036000830152613b14816137f8565b9050919050565b60006020820190508181036000830152613b348161382f565b9050919050565b60006020820190508181036000830152613b548161388c565b9050919050565b60006020820190508181036000830152613b74816138c3565b9050919050565b60006020820190508181036000830152613b9481613920565b9050919050565b60006020820190508181036000830152613bb58184613957565b905092915050565b6000602082019050613bd260008301846139e0565b92915050565b600081519050919050565b600081519050919050565b600081519050919050565b600081519050919050565b6000613c0f82613c16565b9050919050565b600073ffffffffffffffffffffffffffffffffffffffff82169050919050565b6000819050919050565b6000819050919050565b60005b83811015613c68578082015181840152602081019050613c4d565b83811115613c77576000848401525b50505050565b6000601f19601f830116905091905056fea265627a7a723058207c5e8e6ca94287c1dd82af339a9c131c8aac091e58e0ec9c33d65c0f82fe927b6c6578706572696d656e74616cf50037",
  "source": "// SPDX-License-Identifier: MIT\r\npragma solidity >=0.4.0 <0.9.0;\r\npragma experimental ABIEncoderV2;\r\n\r\ncontract Contract {\r\n    struct ServiceProvider {\r\n        address serviceProviderAddress;\r\n        string name;\r\n        uint serviceProviderID;\r\n        uint requestID;\r\n    }\r\n\r\n    struct Service {\r\n        string hashS;\r\n        string hashS1;\r\n        string name;\r\n        uint serviceID;\r\n        address serviceProviderAddress;\r\n        string s2;\r\n        bytes tempS;\r\n        bytes tempS1;\r\n    }\r\n\r\n    struct Client {\r\n        string name;\r\n        address clientAddress;\r\n        uint clientID;\r\n        uint requestID;\r\n    }\r\n\r\n    struct Request {\r\n        uint requestID;\r\n        uint state;\r\n        address from;\r\n        address to;\r\n        uint serviceID;\r\n        string verdict;\r\n    }\r\n\r\n    uint public serviceProviderCount;\r\n    uint public clientCount;\r\n    uint public serviceCount;\r\n    uint private requestCount;\r\n\r\n    mapping(address => ServiceProvider) private serviceProviders;\r\n    mapping(uint => Service) public services;\r\n    mapping(address => Client) private clients;\r\n    mapping(uint => Request) private requests;\r\n\r\n    function registerServiceProvider(string calldata _name1, string calldata _name2, string calldata _hash1,bytes calldata _tempS) external {\r\n        serviceProviderCount++;\r\n        serviceProviders[msg.sender] = ServiceProvider({\r\n            serviceProviderAddress: msg.sender,\r\n            name: _name1,\r\n            serviceProviderID: serviceProviderCount,\r\n            requestID:0\r\n        });\r\n        serviceCount++;\r\n        services[serviceCount] = Service({\r\n            hashS: _hash1,  // Placeholder, replace with the actual hash value\r\n            hashS1: \"\",  // Placeholder, replace with the actual hash value\r\n            name: _name2,\r\n            serviceID: serviceCount,\r\n            serviceProviderAddress:msg.sender,\r\n            s2:\"\",\r\n            tempS:_tempS,\r\n            tempS1:\"123\"\r\n        });\r\n\r\n    }\r\n\r\n    function registerClient(string calldata _name) external {\r\n       // require(clients[msg.sender].clientAddress == address(0), \"Client already registered\");\r\n        clientCount++;\r\n        clients[msg.sender] = Client({\r\n            name:_name,\r\n            clientAddress: msg.sender,\r\n            clientID: clientCount,\r\n            requestID:0\r\n        });\r\n        \r\n    }\r\n\r\n    function checkAccount() external view returns (string memory) {\r\n        if (clients[msg.sender].clientAddress != address(0)) {\r\n            return \"client\";\r\n        } else if (serviceProviders[msg.sender].serviceProviderAddress != address(0)) {\r\n            return \"serviceProvider\";\r\n        } else {\r\n            return \"no\";\r\n        }\r\n    }\r\n\r\n    function requestService(uint _serviceID) external {\r\n        require(clients[msg.sender].clientAddress != address(0), \"Only clients can request services\");\r\n        Service memory service = services[_serviceID];\r\n        address serviceProviderAddress = service.serviceProviderAddress;\r\n        // Increment requestCount\r\n        requestCount++;\r\n\r\n        // Create a new Request\r\n        requests[requestCount] = Request({\r\n            requestID: requestCount,\r\n            state: 0,  // You can set the initial state as needed\r\n            from: msg.sender,\r\n            to: serviceProviderAddress,\r\n            serviceID: _serviceID,\r\n            verdict:\"No\"\r\n        });\r\n\r\n        // Update requested service in ServiceProvider\r\n        serviceProviders[serviceProviderAddress].requestID = requestCount;\r\n\r\n        // Update requested service in Client\r\n        clients[msg.sender].requestID = requestCount;\r\n    }\r\n\r\n    function checkRequestedServiceForClient() external view returns (uint) {\r\n        require(clients[msg.sender].clientAddress != address(0), \"Only clients can check requested services\");\r\n        return clients[msg.sender].requestID;\r\n    }\r\n\r\n    function checkRequestedServiceForProvider() external view returns (uint) {\r\n        require(serviceProviders[msg.sender].serviceProviderAddress != address(0), \"Only service providers can check requested services\");\r\n        return serviceProviders[msg.sender].requestID;\r\n    }\r\n\r\n    function getRequestInfo(uint _requestID) external view returns (Request memory) {\r\n        require(_requestID > 0 && _requestID <= requestCount, \"Invalid request ID\");\r\n        return requests[_requestID];\r\n    }\r\n    modifier onlyIfVerdictIsNo(uint _requestID) {\r\n        require(_requestID > 0 && _requestID <= requestCount, \"Invalid request ID\");\r\n        require(keccak256(abi.encodePacked(requests[_requestID].verdict)) == keccak256(abi.encodePacked(\"No\")), \"Verdict must be 'No'\");\r\n        _;\r\n    }\r\n    function setHashS1(uint _requestID, string calldata _hashS1,bytes calldata _tempS1) external onlyIfVerdictIsNo(_requestID){\r\n        require(_requestID > 0 && _requestID <= requestCount, \"Invalid request ID\");\r\n        // Find the corresponding service ID from the request\r\n        uint serviceID = requests[_requestID].serviceID;\r\n\r\n        // Update HashS2 for the service\r\n        services[serviceID].hashS1 = _hashS1;\r\n        services[serviceID].tempS1=_tempS1;\r\n\r\n        // Update the state of the request\r\n        requests[_requestID].state++;\r\n    }\r\n\r\n    function displayHashS1(uint _serviceID) external view returns (bytes memory) {\r\n        require(_serviceID > 0 && _serviceID <= serviceCount, \"Invalid service ID\");\r\n        return services[_serviceID].tempS1;\r\n    }\r\n\r\n    function confirmHashS1(uint _requestID) external onlyIfVerdictIsNo(_requestID) {\r\n        require(_requestID > 0 && _requestID <= requestCount, \"Invalid request ID\");\r\n\r\n        // Update the state of the request\r\n        requests[_requestID].state++;\r\n    }\r\n     function declineRequest(uint _requestID) external onlyIfVerdictIsNo(_requestID){\r\n        require(_requestID > 0 && _requestID <= requestCount, \"Invalid request ID\");\r\n\r\n        // Update the state of the request to 4\r\n        requests[_requestID].state = 4;\r\n\r\n        // Check if the requester is a client or a service provider\r\n        if (clients[msg.sender].clientAddress != address(0)) {\r\n            // If it is a client, update the verdict to \"AbortByClient\"\r\n            requests[_requestID].verdict = \"AbortByClient\";\r\n        } else if (serviceProviders[msg.sender].serviceProviderAddress != address(0)) {\r\n            // If it is a service provider, update the verdict to \"AbortByServiceProvider\"\r\n            requests[_requestID].verdict = \"AbortByServiceProvider\";\r\n        }\r\n    }\r\n\r\n    function publishS2(uint _requestID, string calldata _s2) external onlyIfVerdictIsNo(_requestID){\r\n        require(_requestID > 0 && _requestID <= requestCount, \"Invalid request ID\");\r\n\r\n        // Find the corresponding service ID from the request\r\n        uint serviceID = requests[_requestID].serviceID;\r\n        requests[_requestID].state++;\r\n        // Update S1 for the service\r\n        services[serviceID].s2 = _s2;\r\n    }\r\n\r\n    function displayS2(uint _requestID) external view returns (string memory) {\r\n        require(_requestID > 0 && _requestID <= requestCount, \"Invalid request ID\");\r\n\r\n        // Find the corresponding service ID from the request\r\n        uint serviceID = requests[_requestID].serviceID;\r\n\r\n        // Return the S1 parameter of the service\r\n        return services[serviceID].s2;\r\n    }\r\n\r\n     function confirmS2(uint _requestID) external onlyIfVerdictIsNo(_requestID) {\r\n        require(_requestID > 0 && _requestID <= requestCount, \"Invalid request ID\");\r\n\r\n        // Update the state of the request\r\n        requests[_requestID].state++;\r\n\r\n        // Update the verdict to \"Success\"\r\n        requests[_requestID].verdict = \"Success\";\r\n    }\r\n\r\n    // function resetClient() external {\r\n    //     require(clients[msg.sender].clientAddress != address(0), \"Only clients can reset\");\r\n\r\n    //     // Update the requestID of the client to 0\r\n    //     clients[msg.sender].requestID = 0;\r\n    // }\r\n\r\n    // function resetSp() external {\r\n    //     require(serviceProviders[msg.sender].serviceProviderAddress != address(0), \"Only service providers can reset\");\r\n\r\n    //     // Update the requestID of the service provider to 0\r\n    //     serviceProviders[msg.sender].requestID = 0;\r\n    // }\r\n    function resetUser() external {\r\n        if (clients[msg.sender].clientAddress != address(0)) {\r\n            // If it is a client, update the verdict to \"AbortByClient\"\r\n            clients[msg.sender].requestID = 0;\r\n        } else if (serviceProviders[msg.sender].serviceProviderAddress != address(0)) {\r\n            // If it is a service provider, update the verdict to \"AbortByServiceProvider\"\r\n            serviceProviders[msg.sender].requestID = 0;\r\n        }\r\n    }\r\n    \r\n    function computeVerdict(bytes calldata _s, uint _requestID) external returns (string memory) {\r\n        require(_requestID > 0 && _requestID <= requestCount, \"Invalid request ID\");\r\n\r\n        // Find the corresponding service ID from the request\r\n        uint serviceID = requests[_requestID].serviceID;\r\n\r\n        // Compute the hashS for the service\r\n        requests[_requestID].state++;\r\n\r\n        //string memory computedHashS = services[serviceID].hashS;\r\n        bytes memory computedTemp = services[serviceID].tempS;\r\n        if (_s.length != computedTemp.length) {\r\n            requests[_requestID].verdict = \"MaliciousClient\";\r\n            return \"Yes\";\r\n        }\r\n\r\n        for (uint256 i = 0; i < _s.length; i++) {\r\n            if (_s[i] != computedTemp[i]) {\r\n                requests[_requestID].verdict = \"MaliciousServiceProvider\";\r\n                return \"No\";\r\n            }\r\n        }\r\n        requests[_requestID].verdict = \"MaliciousClient\";\r\n        return \"Yes\";\r\n        \r\n        // // Compare the computed hashS with the input string _s\r\n        // if (keccak256(abi.encodePacked(computedHashS)) == keccak256(abi.encodePacked(_s))) {\r\n        //     requests[_requestID].verdict = \"MaliciousClient\";\r\n        //     return \"Yes\"; // Match\r\n        // } else {\r\n        //     requests[_requestID].verdict = \"MaliciousServiceProvider\";\r\n        //     return \"No\"; // No match\r\n        // }\r\n    }\r\n}",
  "sourcePath": "D:\\GOPAL DATA\\iit ropar\\SUBJECTS\\CS-540\\Project\\Project\\contracts\\Contract.sol",
  "compiler": {
    "name": "solc",
    "version": "0.5.1+commit.c8a2cb62.Emscripten.clang"
  },
  "schemaVersion": "3.4.16",
  "updatedAt": "2023-11-27T03:05:17.444Z",
  "networkType": "ethereum",
  "devdoc": {
    "methods": {}
  },
  "userdoc": {
    "methods": {}
  }
}