{
  "contractName": "Contract",
  "abi": [
    {
      "constant": true,
      "inputs": [],
      "name": "serviceCount",
      "outputs": [
        {
          "name": "",
          "type": "uint256"
        }
      ],
      "payable": false,
      "stateMutability": "view",
      "type": "function"
    },
    {
      "constant": true,
      "inputs": [
        {
          "name": "",
          "type": "uint256"
        }
      ],
      "name": "services",
      "outputs": [
        {
          "name": "hashS",
          "type": "string"
        },
        {
          "name": "hashS1",
          "type": "string"
        },
        {
          "name": "name",
          "type": "string"
        },
        {
          "name": "serviceID",
          "type": "uint256"
        },
        {
          "name": "serviceProviderAddress",
          "type": "address"
        },
        {
          "name": "s2",
          "type": "string"
        }
      ],
      "payable": false,
      "stateMutability": "view",
      "type": "function"
    },
    {
      "constant": true,
      "inputs": [],
      "name": "clientCount",
      "outputs": [
        {
          "name": "",
          "type": "uint256"
        }
      ],
      "payable": false,
      "stateMutability": "view",
      "type": "function"
    },
    {
      "constant": true,
      "inputs": [],
      "name": "serviceProviderCount",
      "outputs": [
        {
          "name": "",
          "type": "uint256"
        }
      ],
      "payable": false,
      "stateMutability": "view",
      "type": "function"
    },
    {
      "constant": false,
      "inputs": [
        {
          "name": "_name1",
          "type": "string"
        },
        {
          "name": "_name2",
          "type": "string"
        },
        {
          "name": "_hash1",
          "type": "string"
        }
      ],
      "name": "registerServiceProvider",
      "outputs": [],
      "payable": false,
      "stateMutability": "nonpayable",
      "type": "function"
    },
    {
      "constant": false,
      "inputs": [
        {
          "name": "_name",
          "type": "string"
        }
      ],
      "name": "registerClient",
      "outputs": [],
      "payable": false,
      "stateMutability": "nonpayable",
      "type": "function"
    },
    {
      "constant": true,
      "inputs": [],
      "name": "checkAccount",
      "outputs": [
        {
          "name": "",
          "type": "string"
        }
      ],
      "payable": false,
      "stateMutability": "view",
      "type": "function"
    },
    {
      "constant": false,
      "inputs": [
        {
          "name": "_serviceID",
          "type": "uint256"
        }
      ],
      "name": "requestService",
      "outputs": [],
      "payable": false,
      "stateMutability": "nonpayable",
      "type": "function"
    },
    {
      "constant": true,
      "inputs": [],
      "name": "checkRequestedServiceForClient",
      "outputs": [
        {
          "name": "",
          "type": "uint256"
        }
      ],
      "payable": false,
      "stateMutability": "view",
      "type": "function"
    },
    {
      "constant": true,
      "inputs": [],
      "name": "checkRequestedServiceForProvider",
      "outputs": [
        {
          "name": "",
          "type": "uint256"
        }
      ],
      "payable": false,
      "stateMutability": "view",
      "type": "function"
    },
    {
      "constant": true,
      "inputs": [
        {
          "name": "_requestID",
          "type": "uint256"
        }
      ],
      "name": "getRequestInfo",
      "outputs": [
        {
          "components": [
            {
              "name": "requestID",
              "type": "uint256"
            },
            {
              "name": "state",
              "type": "uint256"
            },
            {
              "name": "from",
              "type": "address"
            },
            {
              "name": "to",
              "type": "address"
            },
            {
              "name": "serviceID",
              "type": "uint256"
            },
            {
              "name": "verdict",
              "type": "string"
            }
          ],
          "name": "",
          "type": "tuple"
        }
      ],
      "payable": false,
      "stateMutability": "view",
      "type": "function"
    },
    {
      "constant": false,
      "inputs": [
        {
          "name": "_requestID",
          "type": "uint256"
        },
        {
          "name": "_hashS1",
          "type": "string"
        }
      ],
      "name": "setHashS1",
      "outputs": [],
      "payable": false,
      "stateMutability": "nonpayable",
      "type": "function"
    },
    {
      "constant": true,
      "inputs": [
        {
          "name": "_serviceID",
          "type": "uint256"
        }
      ],
      "name": "displayHashS1",
      "outputs": [
        {
          "name": "",
          "type": "string"
        }
      ],
      "payable": false,
      "stateMutability": "view",
      "type": "function"
    },
    {
      "constant": false,
      "inputs": [
        {
          "name": "_requestID",
          "type": "uint256"
        }
      ],
      "name": "confirmHashS1",
      "outputs": [],
      "payable": false,
      "stateMutability": "nonpayable",
      "type": "function"
    },
    {
      "constant": false,
      "inputs": [
        {
          "name": "_requestID",
          "type": "uint256"
        }
      ],
      "name": "declineRequest",
      "outputs": [],
      "payable": false,
      "stateMutability": "nonpayable",
      "type": "function"
    },
    {
      "constant": false,
      "inputs": [
        {
          "name": "_requestID",
          "type": "uint256"
        },
        {
          "name": "_s2",
          "type": "string"
        }
      ],
      "name": "publishS2",
      "outputs": [],
      "payable": false,
      "stateMutability": "nonpayable",
      "type": "function"
    },
    {
      "constant": true,
      "inputs": [
        {
          "name": "_requestID",
          "type": "uint256"
        }
      ],
      "name": "displayS2",
      "outputs": [
        {
          "name": "",
          "type": "string"
        }
      ],
      "payable": false,
      "stateMutability": "view",
      "type": "function"
    },
    {
      "constant": false,
      "inputs": [
        {
          "name": "_requestID",
          "type": "uint256"
        }
      ],
      "name": "confirmS2",
      "outputs": [],
      "payable": false,
      "stateMutability": "nonpayable",
      "type": "function"
    },
    {
      "constant": false,
      "inputs": [],
      "name": "resetUser",
      "outputs": [],
      "payable": false,
      "stateMutability": "nonpayable",
      "type": "function"
    },
    {
      "constant": false,
      "inputs": [
        {
          "name": "_s",
          "type": "string"
        },
        {
          "name": "_requestID",
          "type": "uint256"
        }
      ],
      "name": "computeVerdict",
      "outputs": [
        {
          "name": "",
          "type": "string"
        }
      ],
      "payable": false,
      "stateMutability": "nonpayable",
      "type": "function"
    }
  ],
  "bytecode": "0x608060405234801561001057600080fd5b50613534806100206000396000f3fe60806040526004361061010c576000357c010000000000000000000000000000000000000000000000000000000090048063019fcdea14610111578063062375261461013a5780630b816045146101655780630ce2fee1146101a25780631980b22e146101cd578063399b4ddc146101e45780633bcfa2701461020d5780634c6448fe1461024a5780635c13a439146102735780635d6c8a0c1461029e5780638c068d05146102c75780638cb3c592146102f05780639d4417801461032d578063b126a93e14610356578063b7b43eb31461037f578063be6ad767146103a8578063c22c4f43146103d3578063dc06a74614610415578063e541c71e14610452578063efec22db1461047d575b600080fd5b34801561011d57600080fd5b5061013860048036036101339190810190612f6e565b6104a8565b005b34801561014657600080fd5b5061014f610ab2565b60405161015c919061343f565b60405180910390f35b34801561017157600080fd5b5061018c60048036036101879190810190612f6e565b610ab8565b604051610199919061341d565b60405180910390f35b3480156101ae57600080fd5b506101b7610ca5565b6040516101c4919061343f565b60405180910390f35b3480156101d957600080fd5b506101e2610dc2565b005b3480156101f057600080fd5b5061020b60048036036102069190810190612f6e565b610f8b565b005b34801561021957600080fd5b50610234600480360361022f9190810190612f16565b611361565b60405161024191906132be565b60405180910390f35b34801561025657600080fd5b50610271600480360361026c9190810190612e2d565b61166f565b005b34801561027f57600080fd5b506102886117be565b60405161029591906132be565b60405180910390f35b3480156102aa57600080fd5b506102c560048036036102c09190810190612f6e565b6119a6565b005b3480156102d357600080fd5b506102ee60048036036102e99190810190612e72565b611b8f565b005b3480156102fc57600080fd5b5061031760048036036103129190810190612f6e565b611ebe565b60405161032491906132be565b60405180910390f35b34801561033957600080fd5b50610354600480360361034f9190810190612f6e565b611fc9565b005b34801561036257600080fd5b5061037d60048036036103789190810190612f97565b612212565b005b34801561038b57600080fd5b506103a660048036036103a19190810190612f97565b61243f565b005b3480156103b457600080fd5b506103bd61266c565b6040516103ca919061343f565b60405180910390f35b3480156103df57600080fd5b506103fa60048036036103f59190810190612f6e565b612789565b60405161040c969594939291906132e0565b60405180910390f35b34801561042157600080fd5b5061043c60048036036104379190810190612f6e565b612a45565b60405161044991906132be565b60405180910390f35b34801561045e57600080fd5b50610467612b6c565b604051610474919061343f565b60405180910390f35b34801561048957600080fd5b50610492612b72565b60405161049f919061343f565b60405180910390f35b600073ffffffffffffffffffffffffffffffffffffffff16600660003373ffffffffffffffffffffffffffffffffffffffff1673ffffffffffffffffffffffffffffffffffffffff16815260200190815260200160002060010160009054906101000a900473ffffffffffffffffffffffffffffffffffffffff1673ffffffffffffffffffffffffffffffffffffffff161415151561057c576040517f08c379a00000000000000000000000000000000000000000000000000000000081526004016105739061339d565b60405180910390fd5b610584612b78565b6005600083815260200190815260200160002060c06040519081016040529081600082018054600181600116156101000203166002900480601f01602080910402602001604051908101604052809291908181526020018280546001816001161561010002031660029004801561063c5780601f106106115761010080835404028352916020019161063c565b820191906000526020600020905b81548152906001019060200180831161061f57829003601f168201915b50505050508152602001600182018054600181600116156101000203166002900480601f0160208091040260200160405190810160405280929190818152602001828054600181600116156101000203166002900480156106de5780601f106106b3576101008083540402835291602001916106de565b820191906000526020600020905b8154815290600101906020018083116106c157829003601f168201915b50505050508152602001600282018054600181600116156101000203166002900480601f0160208091040260200160405190810160405280929190818152602001828054600181600116156101000203166002900480156107805780601f1061075557610100808354040283529160200191610780565b820191906000526020600020905b81548152906001019060200180831161076357829003601f168201915b50505050508152602001600382015481526020016004820160009054906101000a900473ffffffffffffffffffffffffffffffffffffffff1673ffffffffffffffffffffffffffffffffffffffff1673ffffffffffffffffffffffffffffffffffffffff168152602001600582018054600181600116156101000203166002900480601f0160208091040260200160405190810160405280929190818152602001828054600181600116156101000203166002900480156108825780601f1061085757610100808354040283529160200191610882565b820191906000526020600020905b81548152906001019060200180831161086557829003601f168201915b505050505081525050905060008160800151905060036000815480929190600101919050555060c0604051908101604052806003548152602001600081526020013373ffffffffffffffffffffffffffffffffffffffff1681526020018273ffffffffffffffffffffffffffffffffffffffff1681526020018481526020016040805190810160405280600281526020017f4e6f000000000000000000000000000000000000000000000000000000000000815250815250600760006003548152602001908152602001600020600082015181600001556020820151816001015560408201518160020160006101000a81548173ffffffffffffffffffffffffffffffffffffffff021916908373ffffffffffffffffffffffffffffffffffffffff16021790555060608201518160030160006101000a81548173ffffffffffffffffffffffffffffffffffffffff021916908373ffffffffffffffffffffffffffffffffffffffff1602179055506080820151816004015560a0820151816005019080519060200190610a17929190612bc5565b50905050600354600460008373ffffffffffffffffffffffffffffffffffffffff1673ffffffffffffffffffffffffffffffffffffffff16815260200190815260200160002060030181905550600354600660003373ffffffffffffffffffffffffffffffffffffffff1673ffffffffffffffffffffffffffffffffffffffff16815260200190815260200160002060030181905550505050565b60025481565b610ac0612c45565b600082118015610ad257506003548211155b1515610b13576040517f08c379a0000000000000000000000000000000000000000000000000000000008152600401610b0a906133fd565b60405180910390fd5b6007600083815260200190815260200160002060c0604051908101604052908160008201548152602001600182015481526020016002820160009054906101000a900473ffffffffffffffffffffffffffffffffffffffff1673ffffffffffffffffffffffffffffffffffffffff1673ffffffffffffffffffffffffffffffffffffffff1681526020016003820160009054906101000a900473ffffffffffffffffffffffffffffffffffffffff1673ffffffffffffffffffffffffffffffffffffffff1673ffffffffffffffffffffffffffffffffffffffff16815260200160048201548152602001600582018054600181600116156101000203166002900480601f016020809104026020016040519081016040528092919081815260200182805460018160011615610100020316600290048015610c955780601f10610c6a57610100808354040283529160200191610c95565b820191906000526020600020905b815481529060010190602001808311610c7857829003601f168201915b5050505050815250509050919050565b60008073ffffffffffffffffffffffffffffffffffffffff16600460003373ffffffffffffffffffffffffffffffffffffffff1673ffffffffffffffffffffffffffffffffffffffff16815260200190815260200160002060000160009054906101000a900473ffffffffffffffffffffffffffffffffffffffff1673ffffffffffffffffffffffffffffffffffffffff1614151515610d7a576040517f08c379a0000000000000000000000000000000000000000000000000000000008152600401610d71906133dd565b60405180910390fd5b600460003373ffffffffffffffffffffffffffffffffffffffff1673ffffffffffffffffffffffffffffffffffffffff16815260200190815260200160002060030154905090565b600073ffffffffffffffffffffffffffffffffffffffff16600660003373ffffffffffffffffffffffffffffffffffffffff1673ffffffffffffffffffffffffffffffffffffffff16815260200190815260200160002060010160009054906101000a900473ffffffffffffffffffffffffffffffffffffffff1673ffffffffffffffffffffffffffffffffffffffff16141515610ea7576000600660003373ffffffffffffffffffffffffffffffffffffffff1673ffffffffffffffffffffffffffffffffffffffff16815260200190815260200160002060030181905550610f89565b600073ffffffffffffffffffffffffffffffffffffffff16600460003373ffffffffffffffffffffffffffffffffffffffff1673ffffffffffffffffffffffffffffffffffffffff16815260200190815260200160002060000160009054906101000a900473ffffffffffffffffffffffffffffffffffffffff1673ffffffffffffffffffffffffffffffffffffffff16141515610f88576000600460003373ffffffffffffffffffffffffffffffffffffffff1673ffffffffffffffffffffffffffffffffffffffff168152602001908152602001600020600301819055505b5b565b80600081118015610f9e57506003548111155b1515610fdf576040517f08c379a0000000000000000000000000000000000000000000000000000000008152600401610fd6906133fd565b60405180910390fd5b60405160200180807f4e6f00000000000000000000000000000000000000000000000000000000000081525060020190506040516020818303038152906040528051906020012060076000838152602001908152602001600020600501604051602001808280546001816001161561010002031660029004801561109a5780601f1061107857610100808354040283529182019161109a565b820191906000526020600020905b815481529060010190602001808311611086575b5050915050604051602081830303815290604052805190602001201415156110f7576040517f08c379a00000000000000000000000000000000000000000000000000000000081526004016110ee906133bd565b60405180910390fd5b60008211801561110957506003548211155b151561114a576040517f08c379a0000000000000000000000000000000000000000000000000000000008152600401611141906133fd565b60405180910390fd5b60046007600084815260200190815260200160002060010181905550600073ffffffffffffffffffffffffffffffffffffffff16600660003373ffffffffffffffffffffffffffffffffffffffff1673ffffffffffffffffffffffffffffffffffffffff16815260200190815260200160002060010160009054906101000a900473ffffffffffffffffffffffffffffffffffffffff1673ffffffffffffffffffffffffffffffffffffffff16141515611263576040805190810160405280600d81526020017f41626f72744279436c69656e740000000000000000000000000000000000000081525060076000848152602001908152602001600020600501908051906020019061125d929190612ca8565b5061135d565b600073ffffffffffffffffffffffffffffffffffffffff16600460003373ffffffffffffffffffffffffffffffffffffffff1673ffffffffffffffffffffffffffffffffffffffff16815260200190815260200160002060000160009054906101000a900473ffffffffffffffffffffffffffffffffffffffff1673ffffffffffffffffffffffffffffffffffffffff1614151561135c576040805190810160405280601681526020017f41626f727442795365727669636550726f76696465720000000000000000000081525060076000848152602001908152602001600020600501908051906020019061135a929190612ca8565b505b5b5050565b606060008211801561137557506003548211155b15156113b6576040517f08c379a00000000000000000000000000000000000000000000000000000000081526004016113ad906133fd565b60405180910390fd5b6000600760008481526020019081526020016000206004015490506060600560008381526020019081526020016000206000018054600181600116156101000203166002900480601f01602080910402602001604051908101604052809291908181526020018280546001816001161561010002031660029004801561147d5780601f106114525761010080835404028352916020019161147d565b820191906000526020600020905b81548152906001019060200180831161146057829003601f168201915b50505050509050858560405160200180838380828437808301925050509250505060405160208183030381529060405280519060200120816040516020018082805190602001908083835b6020831015156114ed57805182526020820191506020810190506020830392506114c8565b6001836020036101000a0380198251168184511680821785525050505050509050019150506040516020818303038152906040528051906020012014156115cd576040805190810160405280600f81526020017f4d616c6963696f7573436c69656e74000000000000000000000000000000000081525060076000868152602001908152602001600020600501908051906020019061158d929190612ca8565b506040805190810160405280600381526020017f596573000000000000000000000000000000000000000000000000000000000081525092505050611668565b6040805190810160405280601881526020017f4d616c6963696f75735365727669636550726f7669646572000000000000000081525060076000868152602001908152602001600020600501908051906020019061162c929190612ca8565b506040805190810160405280600281526020017f4e6f000000000000000000000000000000000000000000000000000000000000815250925050505b9392505050565b60016000815480929190600101919050555060806040519081016040528083838080601f016020809104026020016040519081016040528093929190818152602001838380828437600081840152601f19601f8201169050808301925050505050505081526020013373ffffffffffffffffffffffffffffffffffffffff16815260200160015481526020016000815250600660003373ffffffffffffffffffffffffffffffffffffffff1673ffffffffffffffffffffffffffffffffffffffff168152602001908152602001600020600082015181600001908051906020019061175b929190612bc5565b5060208201518160010160006101000a81548173ffffffffffffffffffffffffffffffffffffffff021916908373ffffffffffffffffffffffffffffffffffffffff16021790555060408201518160020155606082015181600301559050505050565b6060600073ffffffffffffffffffffffffffffffffffffffff16600660003373ffffffffffffffffffffffffffffffffffffffff1673ffffffffffffffffffffffffffffffffffffffff16815260200190815260200160002060010160009054906101000a900473ffffffffffffffffffffffffffffffffffffffff1673ffffffffffffffffffffffffffffffffffffffff16141515611895576040805190810160405280600681526020017f636c69656e74000000000000000000000000000000000000000000000000000081525090506119a3565b600073ffffffffffffffffffffffffffffffffffffffff16600460003373ffffffffffffffffffffffffffffffffffffffff1673ffffffffffffffffffffffffffffffffffffffff16815260200190815260200160002060000160009054906101000a900473ffffffffffffffffffffffffffffffffffffffff1673ffffffffffffffffffffffffffffffffffffffff1614151561196a576040805190810160405280600f81526020017f7365727669636550726f7669646572000000000000000000000000000000000081525090506119a3565b6040805190810160405280600281526020017f6e6f00000000000000000000000000000000000000000000000000000000000081525090505b90565b806000811180156119b957506003548111155b15156119fa576040517f08c379a00000000000000000000000000000000000000000000000000000000081526004016119f1906133fd565b60405180910390fd5b60405160200180807f4e6f000000000000000000000000000000000000000000000000000000000000815250600201905060405160208183030381529060405280519060200120600760008381526020019081526020016000206005016040516020018082805460018160011615610100020316600290048015611ab55780601f10611a93576101008083540402835291820191611ab5565b820191906000526020600020905b815481529060010190602001808311611aa1575b505091505060405160208183030381529060405280519060200120141515611b12576040517f08c379a0000000000000000000000000000000000000000000000000000000008152600401611b09906133bd565b60405180910390fd5b600082118015611b2457506003548211155b1515611b65576040517f08c379a0000000000000000000000000000000000000000000000000000000008152600401611b5c906133fd565b60405180910390fd5b60076000838152602001908152602001600020600101600081548092919060010191905055505050565b60008081548092919060010191905055506080604051908101604052803373ffffffffffffffffffffffffffffffffffffffff16815260200187878080601f016020809104026020016040519081016040528093929190818152602001838380828437600081840152601f19601f82011690508083019250505050505050815260200160005481526020016000815250600460003373ffffffffffffffffffffffffffffffffffffffff1673ffffffffffffffffffffffffffffffffffffffff16815260200190815260200160002060008201518160000160006101000a81548173ffffffffffffffffffffffffffffffffffffffff021916908373ffffffffffffffffffffffffffffffffffffffff1602179055506020820151816001019080519060200190611cc1929190612bc5565b50604082015181600201556060820151816003015590505060026000815480929190600101919050555060c06040519081016040528083838080601f016020809104026020016040519081016040528093929190818152602001838380828437600081840152601f19601f8201169050808301925050505050505081526020016020604051908101604052806000815250815260200185858080601f016020809104026020016040519081016040528093929190818152602001838380828437600081840152601f19601f82011690508083019250505050505050815260200160025481526020013373ffffffffffffffffffffffffffffffffffffffff16815260200160206040519081016040528060008152508152506005600060025481526020019081526020016000206000820151816000019080519060200190611e0a929190612bc5565b506020820151816001019080519060200190611e27929190612bc5565b506040820151816002019080519060200190611e44929190612bc5565b506060820151816003015560808201518160040160006101000a81548173ffffffffffffffffffffffffffffffffffffffff021916908373ffffffffffffffffffffffffffffffffffffffff16021790555060a0820151816005019080519060200190611eb2929190612bc5565b50905050505050505050565b6060600082118015611ed257506002548211155b1515611f13576040517f08c379a0000000000000000000000000000000000000000000000000000000008152600401611f0a9061337d565b60405180910390fd5b600560008381526020019081526020016000206001018054600181600116156101000203166002900480601f016020809104026020016040519081016040528092919081815260200182805460018160011615610100020316600290048015611fbd5780601f10611f9257610100808354040283529160200191611fbd565b820191906000526020600020905b815481529060010190602001808311611fa057829003601f168201915b50505050509050919050565b80600081118015611fdc57506003548111155b151561201d576040517f08c379a0000000000000000000000000000000000000000000000000000000008152600401612014906133fd565b60405180910390fd5b60405160200180807f4e6f0000000000000000000000000000000000000000000000000000000000008152506002019050604051602081830303815290604052805190602001206007600083815260200190815260200160002060050160405160200180828054600181600116156101000203166002900480156120d85780601f106120b65761010080835404028352918201916120d8565b820191906000526020600020905b8154815290600101906020018083116120c4575b505091505060405160208183030381529060405280519060200120141515612135576040517f08c379a000000000000000000000000000000000000000000000000000000000815260040161212c906133bd565b60405180910390fd5b60008211801561214757506003548211155b1515612188576040517f08c379a000000000000000000000000000000000000000000000000000000000815260040161217f906133fd565b60405180910390fd5b60076000838152602001908152602001600020600101600081548092919060010191905055506040805190810160405280600781526020017f537563636573730000000000000000000000000000000000000000000000000081525060076000848152602001908152602001600020600501908051906020019061220d929190612ca8565b505050565b8260008111801561222557506003548111155b1515612266576040517f08c379a000000000000000000000000000000000000000000000000000000000815260040161225d906133fd565b60405180910390fd5b60405160200180807f4e6f0000000000000000000000000000000000000000000000000000000000008152506002019050604051602081830303815290604052805190602001206007600083815260200190815260200160002060050160405160200180828054600181600116156101000203166002900480156123215780601f106122ff576101008083540402835291820191612321565b820191906000526020600020905b81548152906001019060200180831161230d575b50509150506040516020818303038152906040528051906020012014151561237e576040517f08c379a0000000000000000000000000000000000000000000000000000000008152600401612375906133bd565b60405180910390fd5b60008411801561239057506003548411155b15156123d1576040517f08c379a00000000000000000000000000000000000000000000000000000000081526004016123c8906133fd565b60405180910390fd5b6000600760008681526020019081526020016000206004015490508383600560008481526020019081526020016000206001019190612411929190612d28565b5060076000868152602001908152602001600020600101600081548092919060010191905055505050505050565b8260008111801561245257506003548111155b1515612493576040517f08c379a000000000000000000000000000000000000000000000000000000000815260040161248a906133fd565b60405180910390fd5b60405160200180807f4e6f00000000000000000000000000000000000000000000000000000000000081525060020190506040516020818303038152906040528051906020012060076000838152602001908152602001600020600501604051602001808280546001816001161561010002031660029004801561254e5780601f1061252c57610100808354040283529182019161254e565b820191906000526020600020905b81548152906001019060200180831161253a575b5050915050604051602081830303815290604052805190602001201415156125ab576040517f08c379a00000000000000000000000000000000000000000000000000000000081526004016125a2906133bd565b60405180910390fd5b6000841180156125bd57506003548411155b15156125fe576040517f08c379a00000000000000000000000000000000000000000000000000000000081526004016125f5906133fd565b60405180910390fd5b60006007600086815260200190815260200160002060040154905060076000868152602001908152602001600020600101600081548092919060010191905055508383600560008481526020019081526020016000206005019190612664929190612d28565b505050505050565b60008073ffffffffffffffffffffffffffffffffffffffff16600660003373ffffffffffffffffffffffffffffffffffffffff1673ffffffffffffffffffffffffffffffffffffffff16815260200190815260200160002060010160009054906101000a900473ffffffffffffffffffffffffffffffffffffffff1673ffffffffffffffffffffffffffffffffffffffff1614151515612741576040517f08c379a00000000000000000000000000000000000000000000000000000000081526004016127389061335d565b60405180910390fd5b600660003373ffffffffffffffffffffffffffffffffffffffff1673ffffffffffffffffffffffffffffffffffffffff16815260200190815260200160002060030154905090565b6005602052806000526040600020600091509050806000018054600181600116156101000203166002900480601f0160208091040260200160405190810160405280929190818152602001828054600181600116156101000203166002900480156128355780601f1061280a57610100808354040283529160200191612835565b820191906000526020600020905b81548152906001019060200180831161281857829003601f168201915b505050505090806001018054600181600116156101000203166002900480601f0160208091040260200160405190810160405280929190818152602001828054600181600116156101000203166002900480156128d35780601f106128a8576101008083540402835291602001916128d3565b820191906000526020600020905b8154815290600101906020018083116128b657829003601f168201915b505050505090806002018054600181600116156101000203166002900480601f0160208091040260200160405190810160405280929190818152602001828054600181600116156101000203166002900480156129715780601f1061294657610100808354040283529160200191612971565b820191906000526020600020905b81548152906001019060200180831161295457829003601f168201915b5050505050908060030154908060040160009054906101000a900473ffffffffffffffffffffffffffffffffffffffff1690806005018054600181600116156101000203166002900480601f016020809104026020016040519081016040528092919081815260200182805460018160011615610100020316600290048015612a3b5780601f10612a1057610100808354040283529160200191612a3b565b820191906000526020600020905b815481529060010190602001808311612a1e57829003601f168201915b5050505050905086565b6060600082118015612a5957506003548211155b1515612a9a576040517f08c379a0000000000000000000000000000000000000000000000000000000008152600401612a91906133fd565b60405180910390fd5b600060076000848152602001908152602001600020600401549050600560008281526020019081526020016000206005018054600181600116156101000203166002900480601f016020809104026020016040519081016040528092919081815260200182805460018160011615610100020316600290048015612b5f5780601f10612b3457610100808354040283529160200191612b5f565b820191906000526020600020905b815481529060010190602001808311612b4257829003601f168201915b5050505050915050919050565b60015481565b60005481565b60c06040519081016040528060608152602001606081526020016060815260200160008152602001600073ffffffffffffffffffffffffffffffffffffffff168152602001606081525090565b828054600181600116156101000203166002900490600052602060002090601f016020900481019282601f10612c0657805160ff1916838001178555612c34565b82800160010185558215612c34579182015b82811115612c33578251825591602001919060010190612c18565b5b509050612c419190612da8565b5090565b60c0604051908101604052806000815260200160008152602001600073ffffffffffffffffffffffffffffffffffffffff168152602001600073ffffffffffffffffffffffffffffffffffffffff16815260200160008152602001606081525090565b828054600181600116156101000203166002900490600052602060002090601f016020900481019282601f10612ce957805160ff1916838001178555612d17565b82800160010185558215612d17579182015b82811115612d16578251825591602001919060010190612cfb565b5b509050612d249190612da8565b5090565b828054600181600116156101000203166002900490600052602060002090601f016020900481019282601f10612d6957803560ff1916838001178555612d97565b82800160010185558215612d97579182015b82811115612d96578235825591602001919060010190612d7b565b5b509050612da49190612da8565b5090565b612dca91905b80821115612dc6576000816000905550600101612dae565b5090565b90565b60008083601f8401121515612de157600080fd5b8235905067ffffffffffffffff811115612dfa57600080fd5b602083019150836001820283011115612e1257600080fd5b9250929050565b6000612e2582356134ac565b905092915050565b60008060208385031215612e4057600080fd5b600083013567ffffffffffffffff811115612e5a57600080fd5b612e6685828601612dcd565b92509250509250929050565b60008060008060008060608789031215612e8b57600080fd5b600087013567ffffffffffffffff811115612ea557600080fd5b612eb189828a01612dcd565b9650965050602087013567ffffffffffffffff811115612ed057600080fd5b612edc89828a01612dcd565b9450945050604087013567ffffffffffffffff811115612efb57600080fd5b612f0789828a01612dcd565b92509250509295509295509295565b600080600060408486031215612f2b57600080fd5b600084013567ffffffffffffffff811115612f4557600080fd5b612f5186828701612dcd565b93509350506020612f6486828701612e19565b9150509250925092565b600060208284031215612f8057600080fd5b6000612f8e84828501612e19565b91505092915050565b600080600060408486031215612fac57600080fd5b6000612fba86828701612e19565b935050602084013567ffffffffffffffff811115612fd757600080fd5b612fe386828701612dcd565b92509250509250925092565b612ff881613470565b82525050565b600061300982613465565b80845261301d8160208601602086016134b6565b613026816134e9565b602085010191505092915050565b600061303f8261345a565b8084526130538160208601602086016134b6565b61305c816134e9565b602085010191505092915050565b6000602982527f4f6e6c7920636c69656e74732063616e20636865636b2072657175657374656460208301527f20736572766963657300000000000000000000000000000000000000000000006040830152606082019050919050565b6000601282527f496e76616c6964207365727669636520494400000000000000000000000000006020830152604082019050919050565b6000602182527f4f6e6c7920636c69656e74732063616e2072657175657374207365727669636560208301527f73000000000000000000000000000000000000000000000000000000000000006040830152606082019050919050565b6000601482527f56657264696374206d75737420626520274e6f270000000000000000000000006020830152604082019050919050565b6000603382527f4f6e6c7920736572766963652070726f7669646572732063616e20636865636b60208301527f20726571756573746564207365727669636573000000000000000000000000006040830152606082019050919050565b6000601282527f496e76616c6964207265717565737420494400000000000000000000000000006020830152604082019050919050565b600060c08301600083015161323e60008601826132af565b50602083015161325160208601826132af565b5060408301516132646040860182612fef565b5060608301516132776060860182612fef565b50608083015161328a60808601826132af565b5060a083015184820360a08601526132a28282613034565b9150508091505092915050565b6132b8816134a2565b82525050565b600060208201905081810360008301526132d88184612ffe565b905092915050565b600060c08201905081810360008301526132fa8189613034565b9050818103602083015261330e8188613034565b905081810360408301526133228187613034565b905061333160608301866132af565b61333e6080830185612fef565b81810360a08301526133508184613034565b9050979650505050505050565b600060208201905081810360008301526133768161306a565b9050919050565b60006020820190508181036000830152613396816130c7565b9050919050565b600060208201905081810360008301526133b6816130fe565b9050919050565b600060208201905081810360008301526133d68161315b565b9050919050565b600060208201905081810360008301526133f681613192565b9050919050565b60006020820190508181036000830152613416816131ef565b9050919050565b600060208201905081810360008301526134378184613226565b905092915050565b600060208201905061345460008301846132af565b92915050565b600081519050919050565b600081519050919050565b600061347b82613482565b9050919050565b600073ffffffffffffffffffffffffffffffffffffffff82169050919050565b6000819050919050565b6000819050919050565b60005b838110156134d45780820151818401526020810190506134b9565b838111156134e3576000848401525b50505050565b6000601f19601f830116905091905056fea265627a7a723058208cf3c6134a54a192b2c7c7bb7334cca0f8ae7a5dd64b8b7b859fc9d6a6ba37c16c6578706572696d656e74616cf50037",
  "source": "// SPDX-License-Identifier: MIT\r\npragma solidity >=0.4.0 <0.9.0;\r\npragma experimental ABIEncoderV2;\r\n\r\ncontract Contract {\r\n    struct ServiceProvider {\r\n        address serviceProviderAddress;\r\n        string name;\r\n        uint serviceProviderID;\r\n        uint requestID;\r\n    }\r\n\r\n    struct Service {\r\n        string hashS;\r\n        string hashS1;\r\n        string name;\r\n        uint serviceID;\r\n        address serviceProviderAddress;\r\n        string s2;\r\n    }\r\n\r\n    struct Client {\r\n        string name;\r\n        address clientAddress;\r\n        uint clientID;\r\n        uint requestID;\r\n    }\r\n\r\n    struct Request {\r\n        uint requestID;\r\n        uint state;\r\n        address from;\r\n        address to;\r\n        uint serviceID;\r\n        string verdict;\r\n    }\r\n\r\n    uint public serviceProviderCount;\r\n    uint public clientCount;\r\n    uint public serviceCount;\r\n    uint private requestCount;\r\n\r\n    mapping(address => ServiceProvider) private serviceProviders;\r\n    mapping(uint => Service) public services;\r\n    mapping(address => Client) private clients;\r\n    mapping(uint => Request) private requests;\r\n\r\n    function registerServiceProvider(string calldata _name1, string calldata _name2, string calldata _hash1) external {\r\n        serviceProviderCount++;\r\n        serviceProviders[msg.sender] = ServiceProvider({\r\n            serviceProviderAddress: msg.sender,\r\n            name: _name1,\r\n            serviceProviderID: serviceProviderCount,\r\n            requestID:0\r\n        });\r\n        serviceCount++;\r\n        services[serviceCount] = Service({\r\n            hashS: _hash1,  // Placeholder, replace with the actual hash value\r\n            hashS1: \"\",  // Placeholder, replace with the actual hash value\r\n            name: _name2,\r\n            serviceID: serviceCount,\r\n            serviceProviderAddress:msg.sender,\r\n            s2:\"\"\r\n        });\r\n\r\n    }\r\n\r\n    function registerClient(string calldata _name) external {\r\n       // require(clients[msg.sender].clientAddress == address(0), \"Client already registered\");\r\n        clientCount++;\r\n        clients[msg.sender] = Client({\r\n            name:_name,\r\n            clientAddress: msg.sender,\r\n            clientID: clientCount,\r\n            requestID:0\r\n        });\r\n        \r\n    }\r\n\r\n    function checkAccount() external view returns (string memory) {\r\n        if (clients[msg.sender].clientAddress != address(0)) {\r\n            return \"client\";\r\n        } else if (serviceProviders[msg.sender].serviceProviderAddress != address(0)) {\r\n            return \"serviceProvider\";\r\n        } else {\r\n            return \"no\";\r\n        }\r\n    }\r\n\r\n    function requestService(uint _serviceID) external {\r\n        require(clients[msg.sender].clientAddress != address(0), \"Only clients can request services\");\r\n        Service memory service = services[_serviceID];\r\n        address serviceProviderAddress = service.serviceProviderAddress;\r\n        // Increment requestCount\r\n        requestCount++;\r\n\r\n        // Create a new Request\r\n        requests[requestCount] = Request({\r\n            requestID: requestCount,\r\n            state: 0,  // You can set the initial state as needed\r\n            from: msg.sender,\r\n            to: serviceProviderAddress,\r\n            serviceID: _serviceID,\r\n            verdict:\"No\"\r\n        });\r\n\r\n        // Update requested service in ServiceProvider\r\n        serviceProviders[serviceProviderAddress].requestID = requestCount;\r\n\r\n        // Update requested service in Client\r\n        clients[msg.sender].requestID = requestCount;\r\n    }\r\n\r\n    function checkRequestedServiceForClient() external view returns (uint) {\r\n        require(clients[msg.sender].clientAddress != address(0), \"Only clients can check requested services\");\r\n        return clients[msg.sender].requestID;\r\n    }\r\n\r\n    function checkRequestedServiceForProvider() external view returns (uint) {\r\n        require(serviceProviders[msg.sender].serviceProviderAddress != address(0), \"Only service providers can check requested services\");\r\n        return serviceProviders[msg.sender].requestID;\r\n    }\r\n\r\n    function getRequestInfo(uint _requestID) external view returns (Request memory) {\r\n        require(_requestID > 0 && _requestID <= requestCount, \"Invalid request ID\");\r\n        return requests[_requestID];\r\n    }\r\n    modifier onlyIfVerdictIsNo(uint _requestID) {\r\n        require(_requestID > 0 && _requestID <= requestCount, \"Invalid request ID\");\r\n        require(keccak256(abi.encodePacked(requests[_requestID].verdict)) == keccak256(abi.encodePacked(\"No\")), \"Verdict must be 'No'\");\r\n        _;\r\n    }\r\n    function setHashS1(uint _requestID, string calldata _hashS1) external onlyIfVerdictIsNo(_requestID){\r\n        require(_requestID > 0 && _requestID <= requestCount, \"Invalid request ID\");\r\n        // Find the corresponding service ID from the request\r\n        uint serviceID = requests[_requestID].serviceID;\r\n\r\n        // Update HashS2 for the service\r\n        services[serviceID].hashS1 = _hashS1;\r\n\r\n        // Update the state of the request\r\n        requests[_requestID].state++;\r\n    }\r\n\r\n    function displayHashS1(uint _serviceID) external view returns (string memory) {\r\n        require(_serviceID > 0 && _serviceID <= serviceCount, \"Invalid service ID\");\r\n        return services[_serviceID].hashS1;\r\n    }\r\n\r\n    function confirmHashS1(uint _requestID) external onlyIfVerdictIsNo(_requestID) {\r\n        require(_requestID > 0 && _requestID <= requestCount, \"Invalid request ID\");\r\n\r\n        // Update the state of the request\r\n        requests[_requestID].state++;\r\n    }\r\n     function declineRequest(uint _requestID) external onlyIfVerdictIsNo(_requestID){\r\n        require(_requestID > 0 && _requestID <= requestCount, \"Invalid request ID\");\r\n\r\n        // Update the state of the request to 4\r\n        requests[_requestID].state = 4;\r\n\r\n        // Check if the requester is a client or a service provider\r\n        if (clients[msg.sender].clientAddress != address(0)) {\r\n            // If it is a client, update the verdict to \"AbortByClient\"\r\n            requests[_requestID].verdict = \"AbortByClient\";\r\n        } else if (serviceProviders[msg.sender].serviceProviderAddress != address(0)) {\r\n            // If it is a service provider, update the verdict to \"AbortByServiceProvider\"\r\n            requests[_requestID].verdict = \"AbortByServiceProvider\";\r\n        }\r\n    }\r\n\r\n    function publishS2(uint _requestID, string calldata _s2) external onlyIfVerdictIsNo(_requestID){\r\n        require(_requestID > 0 && _requestID <= requestCount, \"Invalid request ID\");\r\n\r\n        // Find the corresponding service ID from the request\r\n        uint serviceID = requests[_requestID].serviceID;\r\n        requests[_requestID].state++;\r\n        // Update S1 for the service\r\n        services[serviceID].s2 = _s2;\r\n    }\r\n\r\n    function displayS2(uint _requestID) external view returns (string memory) {\r\n        require(_requestID > 0 && _requestID <= requestCount, \"Invalid request ID\");\r\n\r\n        // Find the corresponding service ID from the request\r\n        uint serviceID = requests[_requestID].serviceID;\r\n\r\n        // Return the S1 parameter of the service\r\n        return services[serviceID].s2;\r\n    }\r\n\r\n     function confirmS2(uint _requestID) external onlyIfVerdictIsNo(_requestID) {\r\n        require(_requestID > 0 && _requestID <= requestCount, \"Invalid request ID\");\r\n\r\n        // Update the state of the request\r\n        requests[_requestID].state++;\r\n\r\n        // Update the verdict to \"Success\"\r\n        requests[_requestID].verdict = \"Success\";\r\n    }\r\n\r\n    // function resetClient() external {\r\n    //     require(clients[msg.sender].clientAddress != address(0), \"Only clients can reset\");\r\n\r\n    //     // Update the requestID of the client to 0\r\n    //     clients[msg.sender].requestID = 0;\r\n    // }\r\n\r\n    // function resetSp() external {\r\n    //     require(serviceProviders[msg.sender].serviceProviderAddress != address(0), \"Only service providers can reset\");\r\n\r\n    //     // Update the requestID of the service provider to 0\r\n    //     serviceProviders[msg.sender].requestID = 0;\r\n    // }\r\n    function resetUser() external {\r\n        if (clients[msg.sender].clientAddress != address(0)) {\r\n            // If it is a client, update the verdict to \"AbortByClient\"\r\n            clients[msg.sender].requestID = 0;\r\n        } else if (serviceProviders[msg.sender].serviceProviderAddress != address(0)) {\r\n            // If it is a service provider, update the verdict to \"AbortByServiceProvider\"\r\n            serviceProviders[msg.sender].requestID = 0;\r\n        }\r\n    }\r\n    \r\n    function computeVerdict(string calldata _s, uint _requestID) external  returns (string memory) {\r\n        require(_requestID > 0 && _requestID <= requestCount, \"Invalid request ID\");\r\n\r\n        // Find the corresponding service ID from the request\r\n        uint serviceID = requests[_requestID].serviceID;\r\n\r\n        // Compute the hashS for the service\r\n        string memory computedHashS = services[serviceID].hashS;\r\n        //requests[_requestID].state++;\r\n        // Compare the computed hashS with the input string _s\r\n        if (keccak256(abi.encodePacked(computedHashS)) == keccak256(abi.encodePacked(_s))) {\r\n            requests[_requestID].verdict = \"MaliciousClient\";\r\n            return \"Yes\"; // Match\r\n        } else {\r\n            requests[_requestID].verdict = \"MaliciousServiceProvider\";\r\n            return \"No\"; // No match\r\n        }\r\n    }\r\n}",
  "sourcePath": "D:\\GOPAL DATA\\iit ropar\\SUBJECTS\\CS-540\\Project\\Project\\contracts\\Contract.sol",
  "compiler": {
    "name": "solc",
    "version": "0.5.1+commit.c8a2cb62.Emscripten.clang"
  },
  "schemaVersion": "3.4.16",
  "updatedAt": "2023-11-23T18:14:09.298Z",
  "networkType": "ethereum",
  "devdoc": {
    "methods": {}
  },
  "userdoc": {
    "methods": {}
  }
}