{
  "contractName": "Contract",
  "abi": [
    {
      "constant": true,
      "inputs": [],
      "name": "serviceCount",
      "outputs": [
        {
          "name": "",
          "type": "uint256"
        }
      ],
      "payable": false,
      "stateMutability": "view",
      "type": "function"
    },
    {
      "constant": true,
      "inputs": [
        {
          "name": "",
          "type": "uint256"
        }
      ],
      "name": "services",
      "outputs": [
        {
          "name": "hashS",
          "type": "bytes32"
        },
        {
          "name": "hashS2",
          "type": "bytes32"
        },
        {
          "name": "name",
          "type": "string"
        },
        {
          "name": "serviceID",
          "type": "uint256"
        },
        {
          "name": "serviceProviderAddress",
          "type": "address"
        }
      ],
      "payable": false,
      "stateMutability": "view",
      "type": "function"
    },
    {
      "constant": true,
      "inputs": [],
      "name": "clientCount",
      "outputs": [
        {
          "name": "",
          "type": "uint256"
        }
      ],
      "payable": false,
      "stateMutability": "view",
      "type": "function"
    },
    {
      "constant": true,
      "inputs": [],
      "name": "serviceProviderCount",
      "outputs": [
        {
          "name": "",
          "type": "uint256"
        }
      ],
      "payable": false,
      "stateMutability": "view",
      "type": "function"
    },
    {
      "constant": false,
      "inputs": [
        {
          "name": "_name1",
          "type": "string"
        },
        {
          "name": "_name2",
          "type": "string"
        },
        {
          "name": "_hash1",
          "type": "bytes32"
        },
        {
          "name": "_hash2",
          "type": "bytes32"
        }
      ],
      "name": "registerServiceProvider",
      "outputs": [],
      "payable": false,
      "stateMutability": "nonpayable",
      "type": "function"
    },
    {
      "constant": false,
      "inputs": [
        {
          "name": "_name",
          "type": "string"
        }
      ],
      "name": "registerClient",
      "outputs": [],
      "payable": false,
      "stateMutability": "nonpayable",
      "type": "function"
    },
    {
      "constant": true,
      "inputs": [],
      "name": "checkAccount",
      "outputs": [
        {
          "name": "",
          "type": "string"
        }
      ],
      "payable": false,
      "stateMutability": "view",
      "type": "function"
    },
    {
      "constant": false,
      "inputs": [
        {
          "name": "_serviceID",
          "type": "uint256"
        }
      ],
      "name": "requestService",
      "outputs": [],
      "payable": false,
      "stateMutability": "nonpayable",
      "type": "function"
    },
    {
      "constant": true,
      "inputs": [],
      "name": "checkRequestedServiceForClient",
      "outputs": [
        {
          "name": "",
          "type": "uint256"
        }
      ],
      "payable": false,
      "stateMutability": "view",
      "type": "function"
    },
    {
      "constant": true,
      "inputs": [],
      "name": "checkRequestedServiceForProvider",
      "outputs": [
        {
          "name": "",
          "type": "uint256"
        }
      ],
      "payable": false,
      "stateMutability": "view",
      "type": "function"
    },
    {
      "constant": true,
      "inputs": [
        {
          "name": "_requestID",
          "type": "uint256"
        }
      ],
      "name": "getRequestInfo",
      "outputs": [
        {
          "components": [
            {
              "name": "requestID",
              "type": "uint256"
            },
            {
              "name": "state",
              "type": "uint256"
            },
            {
              "name": "from",
              "type": "address"
            },
            {
              "name": "to",
              "type": "address"
            },
            {
              "name": "serviceID",
              "type": "uint256"
            }
          ],
          "name": "",
          "type": "tuple"
        }
      ],
      "payable": false,
      "stateMutability": "view",
      "type": "function"
    }
  ],
  "bytecode": "0x608060405234801561001057600080fd5b50611800806100206000396000f3fe6080604052600436106100a9576000357c010000000000000000000000000000000000000000000000000000000090048063019fcdea146100ae57806306237526146100d75780630b816045146101025780630ce2fee11461013f5780634c6448fe1461016a5780635c13a439146101935780638386712b146101be578063be6ad767146101e7578063c22c4f4314610212578063e541c71e14610253578063efec22db1461027e575b600080fd5b3480156100ba57600080fd5b506100d560048036036100d09190810190611368565b6102a9565b005b3480156100e357600080fd5b506100ec610689565b6040516100f991906116f7565b60405180910390f35b34801561010e57600080fd5b5061012960048036036101249190810190611368565b61068f565b60405161013691906116dc565b60405180910390f35b34801561014b57600080fd5b506101546107da565b60405161016191906116f7565b60405180910390f35b34801561017657600080fd5b50610191600480360361018c9190810190611288565b6108f7565b005b34801561019f57600080fd5b506101a8610a46565b6040516101b5919061163a565b60405180910390f35b3480156101ca57600080fd5b506101e560048036036101e091908101906112cd565b610c2e565b005b3480156101f357600080fd5b506101fc610eb0565b60405161020991906116f7565b60405180910390f35b34801561021e57600080fd5b5061023960048036036102349190810190611368565b610fcd565b60405161024a9594939291906115e0565b60405180910390f35b34801561025f57600080fd5b506102686110bb565b60405161027591906116f7565b60405180910390f35b34801561028a57600080fd5b506102936110c1565b6040516102a091906116f7565b60405180910390f35b600073ffffffffffffffffffffffffffffffffffffffff16600660003373ffffffffffffffffffffffffffffffffffffffff1673ffffffffffffffffffffffffffffffffffffffff16815260200190815260200160002060010160009054906101000a900473ffffffffffffffffffffffffffffffffffffffff1673ffffffffffffffffffffffffffffffffffffffff161415151561037d576040517f08c379a00000000000000000000000000000000000000000000000000000000081526004016103749061167c565b60405180910390fd5b6103856110c7565b6005600083815260200190815260200160002060a060405190810160405290816000820154815260200160018201548152602001600282018054600181600116156101000203166002900480601f0160208091040260200160405190810160405280929190818152602001828054600181600116156101000203166002900480156104515780601f1061042657610100808354040283529160200191610451565b820191906000526020600020905b81548152906001019060200180831161043457829003601f168201915b50505050508152602001600382015481526020016004820160009054906101000a900473ffffffffffffffffffffffffffffffffffffffff1673ffffffffffffffffffffffffffffffffffffffff1673ffffffffffffffffffffffffffffffffffffffff1681525050905060008160800151905060036000815480929190600101919050555060a0604051908101604052806003548152602001600081526020013373ffffffffffffffffffffffffffffffffffffffff1681526020018273ffffffffffffffffffffffffffffffffffffffff16815260200184815250600760006003548152602001908152602001600020600082015181600001556020820151816001015560408201518160020160006101000a81548173ffffffffffffffffffffffffffffffffffffffff021916908373ffffffffffffffffffffffffffffffffffffffff16021790555060608201518160030160006101000a81548173ffffffffffffffffffffffffffffffffffffffff021916908373ffffffffffffffffffffffffffffffffffffffff16021790555060808201518160040155905050600354600460008373ffffffffffffffffffffffffffffffffffffffff1673ffffffffffffffffffffffffffffffffffffffff16815260200190815260200160002060030181905550600354600660003373ffffffffffffffffffffffffffffffffffffffff1673ffffffffffffffffffffffffffffffffffffffff16815260200190815260200160002060030181905550505050565b60025481565b610697611113565b6000821180156106a957506003548211155b15156106ea576040517f08c379a00000000000000000000000000000000000000000000000000000000081526004016106e1906116bc565b60405180910390fd5b6007600083815260200190815260200160002060a0604051908101604052908160008201548152602001600182015481526020016002820160009054906101000a900473ffffffffffffffffffffffffffffffffffffffff1673ffffffffffffffffffffffffffffffffffffffff1673ffffffffffffffffffffffffffffffffffffffff1681526020016003820160009054906101000a900473ffffffffffffffffffffffffffffffffffffffff1673ffffffffffffffffffffffffffffffffffffffff1673ffffffffffffffffffffffffffffffffffffffff1681526020016004820154815250509050919050565b60008073ffffffffffffffffffffffffffffffffffffffff16600460003373ffffffffffffffffffffffffffffffffffffffff1673ffffffffffffffffffffffffffffffffffffffff16815260200190815260200160002060000160009054906101000a900473ffffffffffffffffffffffffffffffffffffffff1673ffffffffffffffffffffffffffffffffffffffff16141515156108af576040517f08c379a00000000000000000000000000000000000000000000000000000000081526004016108a69061169c565b60405180910390fd5b600460003373ffffffffffffffffffffffffffffffffffffffff1673ffffffffffffffffffffffffffffffffffffffff16815260200190815260200160002060030154905090565b60016000815480929190600101919050555060806040519081016040528083838080601f016020809104026020016040519081016040528093929190818152602001838380828437600081840152601f19601f8201169050808301925050505050505081526020013373ffffffffffffffffffffffffffffffffffffffff16815260200160015481526020016000815250600660003373ffffffffffffffffffffffffffffffffffffffff1673ffffffffffffffffffffffffffffffffffffffff16815260200190815260200160002060008201518160000190805190602001906109e392919061116f565b5060208201518160010160006101000a81548173ffffffffffffffffffffffffffffffffffffffff021916908373ffffffffffffffffffffffffffffffffffffffff16021790555060408201518160020155606082015181600301559050505050565b6060600073ffffffffffffffffffffffffffffffffffffffff16600660003373ffffffffffffffffffffffffffffffffffffffff1673ffffffffffffffffffffffffffffffffffffffff16815260200190815260200160002060010160009054906101000a900473ffffffffffffffffffffffffffffffffffffffff1673ffffffffffffffffffffffffffffffffffffffff16141515610b1d576040805190810160405280600681526020017f636c69656e7400000000000000000000000000000000000000000000000000008152509050610c2b565b600073ffffffffffffffffffffffffffffffffffffffff16600460003373ffffffffffffffffffffffffffffffffffffffff1673ffffffffffffffffffffffffffffffffffffffff16815260200190815260200160002060000160009054906101000a900473ffffffffffffffffffffffffffffffffffffffff1673ffffffffffffffffffffffffffffffffffffffff16141515610bf2576040805190810160405280600f81526020017f7365727669636550726f766964657200000000000000000000000000000000008152509050610c2b565b6040805190810160405280600281526020017f6e6f00000000000000000000000000000000000000000000000000000000000081525090505b90565b60008081548092919060010191905055506080604051908101604052803373ffffffffffffffffffffffffffffffffffffffff16815260200187878080601f016020809104026020016040519081016040528093929190818152602001838380828437600081840152601f19601f82011690508083019250505050505050815260200160005481526020016000815250600460003373ffffffffffffffffffffffffffffffffffffffff1673ffffffffffffffffffffffffffffffffffffffff16815260200190815260200160002060008201518160000160006101000a81548173ffffffffffffffffffffffffffffffffffffffff021916908373ffffffffffffffffffffffffffffffffffffffff1602179055506020820151816001019080519060200190610d6092919061116f565b50604082015181600201556060820151816003015590505060026000815480929190600101919050555060a06040519081016040528083815260200182815260200185858080601f016020809104026020016040519081016040528093929190818152602001838380828437600081840152601f19601f82011690508083019250505050505050815260200160025481526020013373ffffffffffffffffffffffffffffffffffffffff1681525060056000600254815260200190815260200160002060008201518160000155602082015181600101556040820151816002019080519060200190610e5392919061116f565b506060820151816003015560808201518160040160006101000a81548173ffffffffffffffffffffffffffffffffffffffff021916908373ffffffffffffffffffffffffffffffffffffffff160217905550905050505050505050565b60008073ffffffffffffffffffffffffffffffffffffffff16600660003373ffffffffffffffffffffffffffffffffffffffff1673ffffffffffffffffffffffffffffffffffffffff16815260200190815260200160002060010160009054906101000a900473ffffffffffffffffffffffffffffffffffffffff1673ffffffffffffffffffffffffffffffffffffffff1614151515610f85576040517f08c379a0000000000000000000000000000000000000000000000000000000008152600401610f7c9061165c565b60405180910390fd5b600660003373ffffffffffffffffffffffffffffffffffffffff1673ffffffffffffffffffffffffffffffffffffffff16815260200190815260200160002060030154905090565b6005602052806000526040600020600091509050806000015490806001015490806002018054600181600116156101000203166002900480601f0160208091040260200160405190810160405280929190818152602001828054600181600116156101000203166002900480156110855780601f1061105a57610100808354040283529160200191611085565b820191906000526020600020905b81548152906001019060200180831161106857829003601f168201915b5050505050908060030154908060040160009054906101000a900473ffffffffffffffffffffffffffffffffffffffff16905085565b60015481565b60005481565b60a06040519081016040528060008019168152602001600080191681526020016060815260200160008152602001600073ffffffffffffffffffffffffffffffffffffffff1681525090565b60a0604051908101604052806000815260200160008152602001600073ffffffffffffffffffffffffffffffffffffffff168152602001600073ffffffffffffffffffffffffffffffffffffffff168152602001600081525090565b828054600181600116156101000203166002900490600052602060002090601f016020900481019282601f106111b057805160ff19168380011785556111de565b828001600101855582156111de579182015b828111156111dd5782518255916020019190600101906111c2565b5b5090506111eb91906111ef565b5090565b61121191905b8082111561120d5760008160009055506001016111f5565b5090565b90565b6000611220823561176e565b905092915050565b60008083601f840112151561123c57600080fd5b8235905067ffffffffffffffff81111561125557600080fd5b60208301915083600182028301111561126d57600080fd5b9250929050565b60006112808235611778565b905092915050565b6000806020838503121561129b57600080fd5b600083013567ffffffffffffffff8111156112b557600080fd5b6112c185828601611228565b92509250509250929050565b600080600080600080608087890312156112e657600080fd5b600087013567ffffffffffffffff81111561130057600080fd5b61130c89828a01611228565b9650965050602087013567ffffffffffffffff81111561132b57600080fd5b61133789828a01611228565b9450945050604061134a89828a01611214565b925050606061135b89828a01611214565b9150509295509295509295565b60006020828403121561137a57600080fd5b600061138884828501611274565b91505092915050565b61139a81611728565b82525050565b6113a98161173a565b82525050565b60006113ba8261171d565b8084526113ce816020860160208601611782565b6113d7816117b5565b602085010191505092915050565b60006113f082611712565b808452611404816020860160208601611782565b61140d816117b5565b602085010191505092915050565b6000602982527f4f6e6c7920636c69656e74732063616e20636865636b2072657175657374656460208301527f20736572766963657300000000000000000000000000000000000000000000006040830152606082019050919050565b6000602182527f4f6e6c7920636c69656e74732063616e2072657175657374207365727669636560208301527f73000000000000000000000000000000000000000000000000000000000000006040830152606082019050919050565b6000603382527f4f6e6c7920736572766963652070726f7669646572732063616e20636865636b60208301527f20726571756573746564207365727669636573000000000000000000000000006040830152606082019050919050565b6000601282527f496e76616c6964207265717565737420494400000000000000000000000000006020830152604082019050919050565b60a08201600082015161157f60008501826115d1565b50602082015161159260208501826115d1565b5060408201516115a56040850182611391565b5060608201516115b86060850182611391565b5060808201516115cb60808501826115d1565b50505050565b6115da81611764565b82525050565b600060a0820190506115f560008301886113a0565b61160260208301876113a0565b818103604083015261161481866113e5565b905061162360608301856115d1565b6116306080830184611391565b9695505050505050565b6000602082019050818103600083015261165481846113af565b905092915050565b600060208201905081810360008301526116758161141b565b9050919050565b6000602082019050818103600083015261169581611478565b9050919050565b600060208201905081810360008301526116b5816114d5565b9050919050565b600060208201905081810360008301526116d581611532565b9050919050565b600060a0820190506116f16000830184611569565b92915050565b600060208201905061170c60008301846115d1565b92915050565b600081519050919050565b600081519050919050565b600061173382611744565b9050919050565b6000819050919050565b600073ffffffffffffffffffffffffffffffffffffffff82169050919050565b6000819050919050565b6000819050919050565b6000819050919050565b60005b838110156117a0578082015181840152602081019050611785565b838111156117af576000848401525b50505050565b6000601f19601f830116905091905056fea265627a7a7230582060313d75e8b19d0612cd8d4bc0153fa0bfe73928c757a827b63f9d18c1b62eaf6c6578706572696d656e74616cf50037",
  "source": "// SPDX-License-Identifier: MIT\r\npragma solidity >=0.4.0 <0.9.0;\r\npragma experimental ABIEncoderV2;\r\n\r\ncontract Contract {\r\n    struct ServiceProvider {\r\n        address serviceProviderAddress;\r\n        string name;\r\n        uint serviceProviderID;\r\n        uint requestID;\r\n    }\r\n\r\n    struct Service {\r\n        bytes32 hashS;\r\n        bytes32 hashS2;\r\n        string name;\r\n        uint serviceID;\r\n        address serviceProviderAddress;\r\n    }\r\n\r\n    struct Client {\r\n        string name;\r\n        address clientAddress;\r\n        uint clientID;\r\n        uint requestID;\r\n    }\r\n\r\n    struct Request {\r\n        uint requestID;\r\n        uint state;\r\n        address from;\r\n        address to;\r\n        uint serviceID;\r\n    }\r\n\r\n    uint public serviceProviderCount;\r\n    uint public clientCount;\r\n    uint public serviceCount;\r\n    uint private requestCount;\r\n\r\n    mapping(address => ServiceProvider) private serviceProviders;\r\n    mapping(uint => Service) public services;\r\n    mapping(address => Client) private clients;\r\n    mapping(uint => Request) private requests;\r\n\r\n    function registerServiceProvider(string calldata _name1, string calldata _name2, bytes32 _hash1,bytes32 _hash2) external {\r\n        serviceProviderCount++;\r\n        serviceProviders[msg.sender] = ServiceProvider({\r\n            serviceProviderAddress: msg.sender,\r\n            name: _name1,\r\n            serviceProviderID: serviceProviderCount,\r\n            requestID:0\r\n        });\r\n        serviceCount++;\r\n        services[serviceCount] = Service({\r\n            hashS: _hash1,  // Placeholder, replace with the actual hash value\r\n            hashS2: _hash2,  // Placeholder, replace with the actual hash value\r\n            name: _name2,\r\n            serviceID: serviceCount,\r\n            serviceProviderAddress:msg.sender\r\n        });\r\n\r\n    }\r\n\r\n    function registerClient(string calldata _name) external {\r\n       // require(clients[msg.sender].clientAddress == address(0), \"Client already registered\");\r\n        clientCount++;\r\n        clients[msg.sender] = Client({\r\n            name:_name,\r\n            clientAddress: msg.sender,\r\n            clientID: clientCount,\r\n            requestID:0\r\n        });\r\n        \r\n    }\r\n\r\n    function checkAccount() external view returns (string memory) {\r\n        if (clients[msg.sender].clientAddress != address(0)) {\r\n            return \"client\";\r\n        } else if (serviceProviders[msg.sender].serviceProviderAddress != address(0)) {\r\n            return \"serviceProvider\";\r\n        } else {\r\n            return \"no\";\r\n        }\r\n    }\r\n\r\n    function requestService(uint _serviceID) external {\r\n        require(clients[msg.sender].clientAddress != address(0), \"Only clients can request services\");\r\n        Service memory service = services[_serviceID];\r\n        address serviceProviderAddress = service.serviceProviderAddress;\r\n        // Increment requestCount\r\n        requestCount++;\r\n\r\n        // Create a new Request\r\n        requests[requestCount] = Request({\r\n            requestID: requestCount,\r\n            state: 0,  // You can set the initial state as needed\r\n            from: msg.sender,\r\n            to: serviceProviderAddress,\r\n            serviceID: _serviceID\r\n        });\r\n\r\n        // Update requested service in ServiceProvider\r\n        serviceProviders[serviceProviderAddress].requestID = requestCount;\r\n\r\n        // Update requested service in Client\r\n        clients[msg.sender].requestID = requestCount;\r\n    }\r\n\r\n    function checkRequestedServiceForClient() external view returns (uint) {\r\n        require(clients[msg.sender].clientAddress != address(0), \"Only clients can check requested services\");\r\n        return clients[msg.sender].requestID;\r\n    }\r\n\r\n    function checkRequestedServiceForProvider() external view returns (uint) {\r\n        require(serviceProviders[msg.sender].serviceProviderAddress != address(0), \"Only service providers can check requested services\");\r\n        return serviceProviders[msg.sender].requestID;\r\n    }\r\n\r\n    function getRequestInfo(uint _requestID) external view returns (Request memory) {\r\n        require(_requestID > 0 && _requestID <= requestCount, \"Invalid request ID\");\r\n        return requests[_requestID];\r\n    }\r\n    \r\n}",
  "sourcePath": "D:\\GOPAL DATA\\iit ropar\\SUBJECTS\\CS-540\\Project\\Project\\contracts\\Contract.sol",
  "compiler": {
    "name": "solc",
    "version": "0.5.1+commit.c8a2cb62.Emscripten.clang"
  },
  "schemaVersion": "3.4.16",
  "updatedAt": "2023-11-14T23:20:09.973Z",
  "networkType": "ethereum",
  "devdoc": {
    "methods": {}
  },
  "userdoc": {
    "methods": {}
  }
}